:100000000C9462000C948A000C948A000C948A0070
:100010000C948A000C948A000C948A000C948A0038
:100020000C948A000C948A000C948A000C948A0028
:100030000C948A000C948A000C948A000C948A0018
:100040000C9406020C948A000C94D0030C940A04BD
:100050000C948A000C948A000C948A000C948A00F8
:100060000C948A000C948A00000000070002010032
:100070000003040600000000000000000102040864
:100080001020408001020408102001020408102002
:10009000040404040404040402020202020203032E
:1000A00003030303000000002300260029000000D2
:1000B0000000250028002B0000000000240027007D
:1000C0002A00CB0411241FBECFEFD8E0DEBFCDBF86
:1000D00011E0A0E0B1E0ECEEFAE002C005900D9274
:1000E000AA31B107D9F712E0AAE1B1E001C01D922F
:1000F000A23AB107E1F710E0C4ECD0E004C02297C7
:10010000FE010E947005C23CD107C9F70E94FF01A1
:100110000C9449050C9400002EE040E855E260E0A4
:1001200070E088EF91E00E94450461E08091080151
:100130000E94D70260E0809106010C94D702CF9212
:10014000DF92EF92FF920F931F930E945002009153
:10015000E7011091E8012091E9013091EA0160176F
:1001600071078207930748F4009510952095309504
:10017000060F171F281F391F08C06B017C01C01A0A
:10018000D10AE20AF30A970186016093E7017093AE
:10019000E8018093E9019093EA01C8011F910F9152
:1001A000FF90EF90DF90CF9008958091ED019091B6
:1001B000EE0149970CF041C08091EB019091EC0168
:1001C000892B69F4809106010E941003813091050A
:1001D00031F49093EC018093EB010C949F0080919B
:1001E000EB019091EC01019741F5809106010E948D
:1001F0001003892B09F008951092EC011092EB0185
:100200000E949F008D3D25E092072CF01092EE0198
:100210001092ED0108952091ED013091EE01F90168
:10022000EE0FFF1FE15EFE4F918380832F5F3F4FF4
:100230003093EE012093ED01089508959C012D5215
:1002400031402B32314048F49B01215031092B328F
:10025000314018F44130510579F0895E9340833F75
:10026000914068F4615071096B3B724040F4452B3A
:1002700031F482E090E0089581E090E0089580E01C
:1002800090E00895FC0127E030E080E04081329664
:10029000552747FD5095022E01C0440F0A94EAF7F6
:1002A000842B2150310990F708958091ED019091B0
:1002B000EE01499709F05AC0EFE1F1E06FEF7FE7F7
:1002C00080E090E021913191821793070CF4C901ED
:1002D000261737070CF4B90121E0E135F20791F751
:1002E0009C01260F371F37FF02C02F5F3F4F359508
:1002F0002795EFE1F1E041E050E0A081B181A21744
:10030000B3071CF41182108202C0518340833296DD
:10031000A1E0E135FA0789F740911F0150912001D2
:100320000E941E0190931E0180931D01892BA1F054
:1003300081E291E00E94420180931A0181E391E001
:100340000E94420180931B0181E491E00E944201DE
:1003500080931C0181E001C080E01092EE011092B8
:10036000ED011092EC011092EB01089580E00895E8
:10037000CF93DF9300D000D0CDB7DEB780911D01C1
:1003800090911E018983009719F482E489830AC041
:1003900097FF08C023E030E0281B390B30931E0183
:1003A00020931D0180911A018A8380911B018B8308
:1003B00080911C018C8380911D0190911E01892BDD
:1003C00079F0E091F801F091F9010280F381E02DDC
:1003D00044E050E0BE016F5F7F4F88EF91E00995E8
:1003E0000F900F900F900F90DF91CF9108950E9482
:1003F000D5000E94550181110C94B80108950E9406
:1004000073020E948C000E94F701FDCF1F920F9291
:100410000FB60F9211242F933F938F939F93AF9317
:10042000BF938091F0019091F101A091F201B09100
:10043000F3013091EF0123E0230F2D3720F40196D3
:10044000A11DB11D05C026E8230F0296A11DB11DF7
:100450002093EF018093F0019093F101A093F201BA
:10046000B093F3018091F4019091F501A091F60110
:10047000B091F7010196A11DB11D8093F4019093F5
:10048000F501A093F601B093F701BF91AF919F9151
:100490008F913F912F910F900FBE0F901F90189545
:1004A0003FB7F8948091F4019091F501A091F60185
:1004B000B091F70126B5A89B05C02F3F19F0019612
:1004C000A11DB11D3FBF6627782F892F9A2F620F7C
:1004D000711D811D911D42E0660F771F881F991FB6
:1004E0004A95D1F70895789484B5826084BD84B527
:1004F000816084BD85B5826085BD85B5816085BD1F
:10050000EEE6F0E0808181608083E1E8F0E0108237
:10051000808182608083808181608083E0E8F0E078
:10052000808181608083E1EBF0E080818460808362
:10053000E0EBF0E0808181608083EAE7F0E0808199
:1005400084608083808182608083808181608083F9
:100550008081806880831092C1000895833081F08B
:1005600028F4813099F08230A1F008958630A9F006
:100570008730B9F08430D1F4809180008F7D03C042
:10058000809180008F7780938000089584B58F7765
:1005900002C084B58F7D84BD08958091B0008F77AF
:1005A00003C08091B0008F7D8093B0000895CF93F9
:1005B000DF9390E0FC01E458FF4F2491FC01E057E9
:1005C000FF4F8491882349F190E0880F991FFC0127
:1005D000E854FF4FA591B49182559F4FFC01C591FE
:1005E000D4919FB7611108C0F8948C912095822313
:1005F0008C93888182230AC0623051F4F8948C91E4
:10060000322F309583238C938881822B888304C07A
:10061000F8948C91822B8C939FBFDF91CF9108959A
:10062000CF93DF93282F30E0F901E859FF4F8491F1
:10063000F901E458FF4FD491F901E057FF4FC491FD
:10064000CC2391F081110E94AE02EC2FF0E0EE0F6E
:10065000FF1FEC55FF4FA591B4912C912D2381E004
:1006600090E021F480E002C080E090E0DF91CF9143
:100670000895FC0124853585F901E05CFF4F8081F8
:100680009181F901EE5BFF4F20813181821B930B39
:100690008F7399270895FC0184859585FC01E05CA2
:1006A000FF4F40815181FC01EE5BFF4F2081318182
:1006B0004217530741F00190F081E02DE80FF91F38
:1006C000808190E008958FEF9FEF0895FC0184856D
:1006D0009585FC01E05CFF4F40815181FC01EE5BA0
:1006E000FF4F208131814217530779F0A081B181FA
:1006F000A80FB91F8C91208131812F5F3F4F2F733D
:1007000033273183208390E008958FEF9FEF089582
:10071000FC0181A1882329F0A489B5898C9186FFE9
:10072000FBCF11A20895CF93DF93FC012685378577
:10073000D901A05CBF4F8D919C91119701968F7349
:100740009927E901CE5BDF4F4881598184179507CE
:10075000D9F30D90BC91A02DA20FB31F6C93A68569
:10076000B785A05CBF4F11969C938E93A689B789DD
:100770002C9181E090E0078C02C0880F991F0A94A9
:10078000E2F7282B2C9381E081A30488F589E02DE2
:1007900080818064808381E090E0DF91CF91089533
:1007A0001F920F920FB60F9211242F933F934F93E6
:1007B0008F939F93EF93FF938091C00082FD1CC0A5
:1007C0004091C60080919E0290919F0201968F7386
:1007D00099272091A0023091A1028217930771F00E
:1007E000E0919E02F0919F02E25AFD4F4083909368
:1007F0009F0280939E0202C08091C600FF91EF91FC
:100800009F918F914F913F912F910F900FBE0F901D
:100810001F9018951F920F920FB60F9211242F93CD
:100820003F938F939F93EF93FF9320915A023091C0
:100830005B0280915C0290915D022817390731F4C8
:100840008091C1008F7D8093C10014C0E0915C0253
:10085000F0915D02E65EFD4F208180915C029091F7
:100860005D0201968F73992790935D0280935C02DD
:100870002093C600FF91EF919F918F913F912F910F
:100880000F900FBE0F901F901895BF92CF92DF92DE
:10089000EF92FF92CF93DF93EC016A017B01B22EBE
:1008A000411581EE580761057105F9F0EC89FD8964
:1008B00081E090E008A002C0880F991F0A94E2F737
:1008C000808360E079E08DE390E0A70196010E94CB
:1008D0004C052150310941095109569547953795E5
:1008E0002795211580E1380798F0EC89FD89108261
:1008F00060E874E88EE190E0A70196010E944C0543
:100900002150310941095109569547953795279549
:10091000E889F9893083EA89FB892083E88DF98D9C
:10092000B082EE89FF89408181E090E09C010C8CCF
:1009300002C0220F331F0A94E2F7422B4083EE8954
:10094000FF8940819C010D8C02C0220F331F0A9445
:10095000E2F7422B4083EE89FF8940819C010E8C97
:1009600002C0220F331F0A94E2F7422B4083EE8924
:10097000FF8920810F8C02C0880F991F0A94E2F72B
:10098000809582238083DF91CF91FF90EF90DF905D
:10099000CF90BF9008951092FB011092FA0188EE5B
:1009A00093E0A0E0B0E08093FC019093FD01A09360
:1009B000FE01B093FF018EE091E09093F9018093E6
:1009C000F8018EE592E090930502809304028AE19B
:1009D00092E0909307028093060285EC90E090935A
:1009E00009028093080284EC90E090930B028093BC
:1009F0000A0280EC90E090930D0280930C0281EC4F
:100A000090E090930F0280930E0282EC90E090931E
:100A100011028093100286EC90E090931302809371
:100A2000120284E08093140283E08093150287E031
:100A30008093160285E08093170281E0809318026C
:100A40000895CF92DF92EF92FF920F931F93CF936F
:100A5000DF936C017A01EB01E60EF71E00E010E077
:100A6000CE15DF0561F06991D601ED91FC91019001
:100A7000F081E02DC6010995080F191FF1CFC801BB
:100A8000DF91CF911F910F91FF90EF90DF90CF906A
:100A90000895F8940C947405A1E21A2EAA1BBB1BAE
:100AA000FD010DC0AA1FBB1FEE1FFF1FA217B3073A
:100AB000E407F50720F0A21BB30BE40BF50B661F50
:100AC000771F881F991F1A9469F760957095809514
:100AD00090959B01AC01BD01CF010895EE0FFF1F62
:0C0AE0000590F491E02D0994F894FFCFEC
:100AEC000000A20220000C000D0000000000930387
:0A0AFC002105390366034B0388034C
:00000001FF
