:100000000C9462000C9489050C94B6050C948A003B
:100010000C948A000C948A000C948A000C948A0038
:100020000C948A000C948A000C948A000C948A0028
:100030000C948A000C948A000C948A000C948A0018
:100040000C94E3050C948A000C9490080C94CA0854
:100050000C948A000C948A000C948A000C948A00F8
:100060000C948A000C948A00000000070002010032
:100070000003040600000000000000000102040864
:100080001020408001020408102001020408102002
:10009000040404040404040402020202020203032E
:1000A00003030303000000002300260029000000D2
:1000B0000000250028002B0000000000240027007D
:1000C0002A008B0911241FBECFEFD8E0DEBFCDBFC1
:1000D00011E0A0E0B1E0E0EEF5E102C005900D9284
:1000E000A631B107D9F713E0A6E1B1E001C01D9236
:1000F000A93FB107E1F710E0C4ECD0E004C02297BB
:10010000FE010E94EA0AC23CD107C9F70E9496008C
:100110000C945E0A0C94000080E895E20E94520460
:1001200087E090E00E9413030C94D101CF93DF93FA
:10013000CDB7DEB7AA970FB6F894DEBF0FBECDBF1E
:100140000E94D2060E948C003EE0932E43E0842E53
:100150000E94CD048823E1F3CE014D960E94DA047B
:10016000FE017D96DE011196892D01900D928A95F2
:10017000E1F78F8D813071F1823009F040C08B83BF
:10018000A980BA8022E0C22EDC80ED80FE800F8143
:10019000188529853A854B855C856D857E85CE01E0
:1001A0000F960E94DE01CF84D888E988FA880B89EF
:1001B0001C892D893E894F89588D698D7A8D8B8D4B
:1001C0009C8D0E945C0464E670E080E090E00E94F8
:1001D0005D06BECF8B83A980BA80CC24C394DC801B
:1001E000ED80FE800F81188529853A854B855C85D9
:1001F0006D857E85CE010F960E941A03E4CF8D8A0D
:10020000E2CF86E191E008958F929F92AF92BF92E4
:10021000CF92DF92EF92FF92CF93DF9380913302E0
:100220000E949F07892B09F06BC00E9439066B0161
:100230007C018090270290902802A0902902B09023
:100240002A022091210230912202E0911F02F091B6
:10025000200240911B0250911C0260911D0270917E
:100260001E02C0911502D0911602480D591D6A1D3B
:100270007B1D4C155D056E057F05B8F5A601481977
:100280005909BA01882777FD8095982F4F01AA2434
:1002900097FCA094BA2C680D791D8A1D9B1D4427DC
:1002A00037FD4095542F0E94A70A49015A01CE01FB
:1002B00001966FEF7FE70E94930AC0922F02D092BF
:1002C0003002E0923102F0923202C0922302D092C8
:1002D0002402E0922502F092260290921802809267
:1002E00017029093160280931502DF91CF91FF9031
:1002F000EF90DF90CF90BF90AF909F908F90089538
:100300000E9439066B017C0180912F02909130028E
:10031000A0913102B0913202E0912102F0912202CB
:10032000C0911F02D091200240911B0250911C02EB
:1003300060911D0270911E02480F591F6A1F7B1F9A
:100340004C155D056E057F0580F6B601681B790BBF
:10035000882777FD8095982F4E01AA2497FCA094BA
:10036000BA2C680D791D8A1D9B1D9F01442737FDFE
:100370004095542F0E94A70AC0922702D0922802CB
:10038000E0922902F0922A02C0922B02D0922C0213
:10039000E0922D02F0922E0230931A02209319025D
:1003A000A4CF82E090E0909334028093330241E046
:1003B00050E064E071E080E00C9468052F923F9279
:1003C0004F925F926F927F928F929F92AF92BF9265
:1003D000CF92DF92EF92FF920F931F93CF93DF9311
:1003E000CDB7DEB72F970FB6F894DEBF0FBECDBFE7
:1003F0004C01A982BA82CB82DC82ED82FE820F831D
:10040000188729873A874B87852F5C876D877E877A
:10041000C984DA842D813E81309322022093210207
:1004200090E09093200280931F028091210290918E
:10043000220220911F0230912002821B930BAA27D7
:1004400097FDA095BA2F80931B0290931C02A09356
:100450001D02B0931E02E0901502F09016028EE08D
:10046000FE013196D40101900D928A95E1F781E069
:10047000F401868300912102109122020E942D0630
:100480002B013C019801D6010E94610A615071095B
:100490008109910928EE33E040E050E00E94C90A4A
:1004A0002F5F3F4F4F4F5F4F420E531E641E751E0E
:1004B00000E8B02EA12C00E010E0C12CD12C1F864A
:1004C000212C07C08091150290911602E816F906BA
:1004D00009F50E942D06461657066806790690F71C
:1004E000C4012F960FB6F894DEBF0FBECDBFDF91CB
:1004F000CF911F910F91FF90EF90DF90CF90BF9021
:10050000AF909F908F907F906F905F904F903F90B3
:100510002F900895E0901502F09016024091190274
:1005200050911A02209117023091180221100AC02E
:10053000888590E04817590764F2281739074CF668
:10054000222423940115110509F461C0141615061F
:100550004CF5F401638170E0A485B585368080E0B8
:1005600090E004C0019684179507D1F00F5F1F4FEC
:10057000B69408301105B1F7C616D7060CF04FC077
:10058000FD01EC0DFD1DA082FFEFCF1ADF0A10E880
:10059000B12EA12C00E010E001968417950731F7E9
:1005A000F4013682121613064CF5F401438150E033
:1005B00064857585A68180E090E004C0019682176D
:1005C0009307D1F0AB280F5F1F4FB6940830110589
:1005D000A9F7C416D506BCF4FB01EC0DFD1DA082E5
:1005E000FFEFCF1ADF0AB0E8BB2EA12C00E010E02D
:1005F00001968217930731F7F401A683FF85FF2345
:1006000009F467CF6DCFA0E0E1E0EF87D7CFC11449
:10061000D10441F2141615060CF49BCFC3CF312C34
:10062000E1E0EF879FCF809335029093360261E03F
:100630000C940D072F923F924F925F926F927F9290
:100640008F929F92AF92BF92CF92DF92EF92FF92E2
:100650000F931F93CF93DF93CDB7DEB7A2970FB65B
:10066000F894DEBF0FBECDBF9AA389A3A982BA8238
:10067000CB82DC82ED82FE820F83912F188729873F
:100680003A874B875C876D877E87ED81FE8150E0DE
:10069000588F4F8B9E9F80019F9F100D11244D2CD2
:1006A000512C98013695279536952795369527959F
:1006B000A5ECB0E20E94690A929582958F70892715
:1006C0009F70892748EE53E0DC01A49FC001A59FDD
:1006D000900DB49F900D11249801281B390B3C8B71
:1006E0002B8B9C0136952795369527953695279522
:1006F000A5ECB0E20E94690A929582958F708927D5
:100700009F7089279E8B8D8B9F01369527953695F7
:100710002795369527950E94690A3C017294629448
:100720000FE06022672470226724649EC001659EEA
:10073000900D749E900D11243F01681A790A9C0156
:100740003695279536952795369527950E94690AFF
:10075000929582958F7089279F708927988B8F87B4
:100760001A8A198A6C01E12CF12C4D895E899A0153
:1007700040E050E02D8F3E8F4F8F58A3C98EDA8E08
:10078000EB8EFC8E4114510409F44DC02D843E843F
:10079000E12CF12C898C9A8CAB8CBC8CD101CD9046
:1007A0001D012F85388908E010E0A0E8DA2E232B00
:1007B00079F029C060E0809135020E944B07C301A7
:1007C0000E94C706D694015011090115110521F1A7
:1007D0008D2D8C2179F361E0809135020E944B07C9
:1007E000EECF60E0809135020E944B07C3010E946A
:1007F000C706C501B4010E945D06D69401501109D7
:100800000115110549F08D2D8C2159F361E080917E
:1008100035020E944B07EACF3FEFE31AF30AE414D4
:10082000F5040CF4BBCF8B899C890E94C7064D89C7
:100830005E89452B31F06D8D7E8D8F8D98A10E9444
:100840005D0629893A892F5F3F4F3A8B298B4F8963
:10085000588D421753070CF095CF1F828EE0FE0192
:100860003196A9A1BAA101900D928A95E1F789A1CB
:100870009AA1A2960FB6F894DEBF0FBECDBFDF914E
:10088000CF911F910F91FF90EF90DF90CF90BF908D
:10089000AF909F908F907F906F905F904F903F9020
:1008A0002F900895AC01662757FD6095762F2EE0B6
:1008B0008FE493E00C940509CF92DF92EF92FF92C0
:1008C0000F931F93CF93DF93CDB7DEB72E970FB65D
:1008D000F894DEBF0FBECDBFC982DA82EB82FC8204
:1008E0000D831E83A22F2F83232F388749875A8792
:1008F0006B877C878D879E878CEA8093370286E59D
:10090000809338028D819E81E0923902F0923A0202
:1009100080933B02882790933C02A0933D028985F7
:100920009A8520933E0280933F028827909340024D
:1009300060934102709342029D858E85FF2051F1A4
:10094000A92FB82FE3E4F2E04F2D50E0CA018D5BF0
:100950009D4F2D912193E817F907D9F7E0914F03A7
:10096000F0915003445F5F4F0280F381E02D67E315
:1009700072E08FE493E02E960FB6F894DEBF0FBEC0
:10098000CDBFDF91CF911F910F91FF90EF90DF903E
:10099000CF90099440E050E0E1CF8FE493E00E94D3
:1009A000F00721E01816190614F4822F089520E0AC
:1009B000822F0895DF92EF92FF920F931F93CF93B0
:1009C000DF9300D0CDB7DEB78C010DC041E050E021
:1009D000BE016E5F7F4F8FE493E00E940E0A8A8112
:1009E0008C3A09F467C08FE493E00E94F007181670
:1009F000190664F345E050E067E372E08FE493E0AA
:100A00000E940E0AD090380280913A0290E0982F0E
:100A1000882720913902820F911D20913B0230914D
:100A20003702F8013283D38295838483268345E09D
:100A300050E067E372E08FE493E00E940E0A809139
:100A4000390290E0982F882720913802820F911D5B
:100A500030913A0220913B0240913702F8014783DE
:100A60009187808732872387ED2CF12CA70167E3DC
:100A700072E08FE493E00E940E0A0E940101DD20E3
:100A800059F0E7E3F2E0DC01A701495C5D4F2191F9
:100A90002D93E417F507D9F7F80184879587C801E6
:100AA0000F900F90DF91CF911F910F91FF90EF90DA
:100AB000DF90089541E050E0BE016F5F7F4F8FE40B
:100AC00093E00E940E0A8981863509F08CCF92CF7F
:100AD000823008F00895E82FF0E0EE0FFF1FEE5B84
:100AE000FC4F71836083813061F480916900440F11
:100AF000551F440F551F837F842B80936900E99A0B
:100B00000895809169008C7F842B80936900E89A16
:100B100008951F920F920FB60F9211242F933F93B7
:100B20004F935F936F937F938F939F93AF93BF93F5
:100B3000EF93FF938091420390914303892B29F017
:100B4000E0914203F09143030995FF91EF91BF912A
:100B5000AF919F918F917F916F915F914F913F9155
:100B60002F910F900FBE0F901F9018951F920F920C
:100B70000FB60F9211242F933F934F935F936F9370
:100B80007F938F939F93AF93BF93EF93FF93809146
:100B9000440390914503892B29F0E0914403F0919F
:100BA00045030995FF91EF91BF91AF919F918F916F
:100BB0007F916F915F914F913F912F910F900FBE59
:100BC0000F901F9018951F920F920FB60F9211243D
:100BD0002F933F938F939F93AF93BF93809147033E
:100BE00090914803A0914903B0914A033091460384
:100BF00023E0230F2D3768F126E8230F0296A11D6D
:100C0000B11D209346038093470390934803A0931C
:100C10004903B0934A0380914B0390914C03A091F8
:100C20004D03B0914E030196A11DB11D80934B035E
:100C300090934C03A0934D03B0934E03BF91AF919B
:100C40009F918F913F912F910F900FBE0F901F900A
:100C500018950196A11DB11DD4CF2FB7F8946091BE
:100C60004703709148038091490390914A032FBF35
:100C700008953FB7F89480914B0390914C03A09155
:100C80004D03B0914E0326B5A89B05C02F3F19F028
:100C90000196A11DB11D3FBF6627782F892F9A2F7E
:100CA000620F711D811D911D660F771F881F991F8F
:100CB000660F771F881F991F0895CF92DF92EF92DA
:100CC000FF923FB7F894C0904B03D0904C03E09054
:100CD0004D03F0904E0326B5A89B07C02F3F29F087
:100CE0004FEFC41AD40AE40AF40A3FBFFE2CED2CDD
:100CF000DC2CCC24C20ED11CE11CF11CCC0CDD1C64
:100D0000EE1CFF1CCC0CDD1CEE1CFF1C96016115BB
:100D1000710581059105B1F1FFB7F894C0904B03BF
:100D2000D0904C03E0904D03F0904E03E6B5A89BA5
:100D300007C0EF3F29F04FEFC41AD40AE40AF40ABF
:100D4000FFBFFE2CED2CDC2CCC24CE0ED11CE11CE4
:100D5000F11CCC0CDD1CEE1CFF1CCC0CDD1CEE1CB5
:100D6000FF1CA601421B530B483E534080F26150CA
:100D700071098109910928513C4F6115710581055F
:100D8000910551F6FF90EF90DF90CF900895019775
:100D9000009739F0880F991F880F991F02970197C4
:100DA000F1F70895789484B5826084BD84B581603C
:100DB00084BD85B5826085BD85B5816085BDEEE663
:100DC000F0E0808181608083E1E8F0E01082808142
:100DD00082608083808181608083E0E8F0E08081B0
:100DE00081608083E1EBF0E0808184608083E0EBD0
:100DF000F0E0808181608083EAE7F0E080818460B8
:100E00008083808182608083808181608083808113
:100E1000806880831092C1000895CF93DF9390E0A3
:100E2000FC01E458FF4F2491FC01E057FF4F8491EF
:100E30008823B9F090E0880F991FFC01E854FF4F18
:100E4000A591B49182559F4FFC01C591D4919FB754
:100E5000662351F06230A1F0F8948C91822B8C9330
:100E60009FBFDF91CF910895F8948C9120958223B4
:100E70008C938881822388839FBFDF91CF910895CF
:100E8000F8948C91322F309583238C938881822B18
:100E900088839FBFE6CF90E0FC01E859FF4F249183
:100EA000FC01E458FF4F3491FC01E057FF4F84915F
:100EB000882399F0211116C0E82FF0E0EE0FFF1FF4
:100EC000E255FF4FA591B4918FB7F8949C916111B1
:100ED00005C0309593239C938FBF0895932B9C93CB
:100EE0008FBFFBCF233029F160F02630E1F02730AF
:100EF000A1F0243009F7909180009F7D90938000AD
:100F0000DBCF213031F02230B9F694B59F7D94BD0E
:100F1000D3CF94B59F7794BDCFCF9091B0009F7DF4
:100F20009093B000C9CF9091B0009F779093B0009C
:100F3000C3CF909180009F7790938000BDCF90E0C9
:100F4000FC01E859FF4F2491FC01E458FF4F349114
:100F5000FC01E057FF4F8491882391F0211113C0C9
:100F6000E82FF0E0EE0FFF1FEC55FF4FA591B49175
:100F70002C91232381E090E009F0089580E008950A
:100F800080E090E00895233029F160F02630E1F010
:100F90002730A1F0243021F7909180009F7D90931D
:100FA0008000DECF213031F02230D1F694B59F7D24
:100FB00094BDD6CF94B59F7794BDD2CF9091B00019
:100FC0009F7D9093B000CCCF9091B0009F7790938D
:100FD000B000C6CF909180009F7790938000C0CFE3
:100FE000FC0124853585F901E05CFF4F808191810A
:100FF000F901EE5BFF4F20813181821B930B8F73D0
:1010000099270895FC0184859585FC01E05CFF4FDC
:1010100040815181FC01EE5BFF4F208131814217FD
:10102000530741F00190F081E02DE80FF91F808116
:1010300090E008958FEF9FEF0895FC0184859585DA
:10104000FC01E05CFF4F40815181FC01EE5BFF4FF2
:10105000208131814217530779F0A081B181A80F17
:10106000B91F8C91208131812F5F3F4F2F73332720
:101070003183208390E008958FEF9FEF0895FC0166
:1010800081A1882329F0A489B5898C9186FFFDCFA1
:1010900011A20895CF93DF93DC011E968D919C9150
:1010A0001F97EC01C05CDF4F488159814F5F5F4F54
:1010B0004F735527FC01EE5BFF4F208131812417D0
:1010C0003507D9F3E881F981E80FF91F60831E968F
:1010D000ED91FC911F97E05CFF4F51834083569642
:1010E000ED91FC915797208181E090E05F960C9004
:1010F0005F9702C0880F991F0A94E2F7282B20837C
:1011000081E091968C9391975496ED91FC9155972F
:1011100080818064808381E090E0DF91CF910895A9
:101120001F920F920FB60F9211242F933F934F935C
:101130008F939F93EF93FF938091C00082FD27C010
:101140004091C6008091F5039091F60301968F734C
:1011500099272091F7033091F8038217930759F0EC
:10116000E091F503F091F603EB54FC4F408390932C
:10117000F6038093F503FF91EF919F918F914F912B
:101180003F912F910F900FBE0F901F901895809157
:10119000C600F1CF1F920F920FB60F9211242F931A
:1011A0003F938F939F93EF93FF932091B1033091DF
:1011B000B2038091B3039091B40328173907F9F073
:1011C000E091B303F091B403EF58FC4F208180917C
:1011D000B3039091B40301968F7399279093B4034E
:1011E0008093B3032093C600FF91EF919F918F915D
:1011F0003F912F910F900FBE0F901F9018958091E7
:10120000C1008F7D8093C100EFCFBF92CF92DF925C
:10121000EF92FF92CF93DF93EC016A017B01B22E34
:10122000411581EE580761057105F9F0EC89FD89DA
:1012300081E090E008A002C0880F991F0A94E2F7AD
:10124000808360E079E08DE390E0A70196010E9441
:10125000A70A2150310941095109569547953795FB
:101260002795211580E1380798F0EC89FD891082D7
:1012700060E874E88EE190E0A70196010E94A70A59
:1012800021503109410951095695479537952795C0
:10129000E889F9893083EA89FB892083E88DF98D13
:1012A000B082EE89FF89408181E090E09C010C8C46
:1012B00002C0220F331F0A94E2F7422B4083EE89CB
:1012C000FF8940819C010D8C02C0220F331F0A94BC
:1012D000E2F7422B4083EE89FF8940819C010E8C0E
:1012E00002C0220F331F0A94E2F7422B4083EE899B
:1012F000FF8920810F8C02C0880F991F0A94E2F7A2
:10130000809582238083DF91CF91FF90EF90DF90D3
:10131000CF90BF900895109252031092510388EE1F
:1013200093E0A0E0B0E08093530390935403A09324
:101330005503B09356038AE091E090935003809355
:101340004F0385EB93E090935C0380935B0381E70D
:1013500093E090935E0380935D0385EC90E090931F
:10136000600380935F0384EC90E09093620380932A
:10137000610380EC90E0909364038093630381ECBD
:1013800090E0909366038093650382EC90E09093E5
:1013900068038093670386EC90E090936A038093E0
:1013A000690384E080936B0383E080936C0387E0A0
:1013B00080936D0385E080936E0381E080936F03DB
:1013C0000895CF92DF92EF92FF920F931F93CF93E6
:1013D000DF936C0141155105F1F08B01EA01E12C1D
:1013E000F12CD8016D918D01D601ED91FC91019008
:1013F000F081E02DC6010995E80EF91E219720978E
:1014000081F7C701DF91CF911F910F91FF90EF906E
:10141000DF90CF900895E12CF12CF3CF8F929F9223
:10142000AF92BF92CF92DF92EF92FF920F931F93F2
:10143000CF93DF93EC016A0141155105E1F17B0186
:1014400000E010E00E942D06688779878A879B87D5
:1014500013C00E942D0688849984AA84BB846819CD
:1014600079098A099B098C809D80AE80BF806815B0
:1014700079058A059B0588F4E881F9810680F78162
:10148000E02DCE01099597FDE4CFF70181937F010F
:101490000F5F1F4F0C151D05A9F6C801DF91CF91F5
:1014A0001F910F91FF90EF90DF90CF90BF90AF9082
:1014B0009F908F90089500E010E0EFCFF8940C9487
:1014C000EE0A0E94690A332312F48A1B9B0B0C94C8
:1014D0007A0AA29FB001B39FC001A39F700D811D26
:1014E0001124911DB29F700D811D1124911D08952D
:1014F0000E94690AB7FF0895821B930B0895AA1BE7
:10150000BB1B51E107C0AA1FBB1FA617B70710F0EE
:10151000A61BB70B881F991F5A95A9F78095909520
:10152000BC01CD01089597FB072E16F4009407D057
:1015300077FD09D00E947F0A07FC05D03EF4909504
:1015400081959F4F0895709561957F4F0895A1E211
:101550001A2EAA1BBB1BFD010DC0AA1FBB1FEE1F2D
:10156000FF1FA217B307E407F50720F0A21BB30B78
:10157000E40BF50B661F771F881F991F1A9469F7F4
:1015800060957095809590959B01AC01BD01CF0150
:101590000895052E97FB1EF400940E94E00A57FD63
:1015A00007D00E94A70A07FC03D04EF40C94E00A6F
:1015B00050954095309521953F4F4F4F5F4F08957F
:1015C00090958095709561957F4F8F4F9F4F0895AF
:1015D000EE0FFF1F0590F491E02D0994F894FFCFD2
:1015E0000000F9032000000000004A08E109F007AC
:0615F0001D0802083F087F
:00000001FF
