:100000000C945D000C9485000C9485000C94850084
:100010000C9485000C9485000C9485000C9485004C
:100020000C9485000C9485000C9485000C9485003C
:100030000C9485000C9485000C9485000C9485002C
:100040000C945D010C9485000C9471030C94AB032B
:100050000C9485000C9485000C9485000C9485000C
:100060000C9485000C94850000000007000201003C
:100070000003040600000000000000000102040864
:100080001020408001020408102001020408102002
:10009000040404040404040402020202020203032E
:1000A0000303030300000000250028002B000000CC
:1000B0000000240027002A00670411241FBECFEF90
:1000C000D8E0DEBFCDBF11E0A0E0B1E0E6ECFAE0A1
:1000D00002C005900D92AC31B107D9F712E0ACE146
:1000E000B1E001C01D92A536B107E1F710E0CAEBFF
:1000F000D0E004C02297FE010E945D05C83BD107F5
:10010000C9F70E9450010C9436050C94000040E899
:1001100055E260E070E08BEB91E00E94E60361E065
:1001200080910A010C946B022F923F924F925F9242
:100130006F927F928F929F92AF92BF92CF92DF92F7
:10014000EF92FF920F931F93CF93DF931C018B01CC
:100150004A01EB01CC0FDD1FC60FD71F2E01461A37
:10016000570A8AE08C9F30018D9F700C1124A12CBE
:10017000B12CA814B904ACF57101C12CD12CF70134
:10018000819191917F0161E0019731F480910A01A1
:100190000E94A402CE010DC080910A010E94A40217
:1001A000C8010E94FC0160E080910A010E94A40243
:1001B000C2010E94FC0160E080910A010E94A40239
:1001C000C8010E94FC01FFEFCF1ADF0A89E1C816BF
:1001D000D104A9F6C3010E94FC01EFEFAE1ABE0ADA
:1001E000C8CFDF91CF911F910F91FF90EF90DF90DB
:1001F000CF90BF90AF909F908F907F906F905F90C7
:100200004F903F902F9008958BEB91E00E94DA027F
:100210001816190694F54BE150E06EE471E08BEB93
:1002200091E00E94130580914E012AE08202C001F4
:100230001124909309018093080180914F0199271F
:1002400087FD90959093070180930601A0E5B1E0AA
:10025000ECE1F1E080E02D91332727FD30954081DE
:1002600051812417350719F03183208381E03296BC
:1002700091E0A936B90779F7089580E008950E94C2
:100280000401882361F040910601509107016091BB
:100290000801709109018CE191E00C94940008959B
:1002A0000E9407020E9487000E943F016AE070E0FE
:1002B00080E090E00E94D601F7CF1F920F920FB618
:1002C0000F9211242F933F938F939F93AF93BF93DC
:1002D0008091B3019091B401A091B501B091B601A4
:1002E0003091B20123E0230F2D3720F40196A11D98
:1002F000B11D05C026E8230F0296A11DB11D209354
:10030000B2018093B3019093B401A093B501B0936F
:10031000B6018091B7019091B801A091B901B09157
:10032000BA010196A11DB11D8093B7019093B80148
:10033000A093B901B093BA01BF91AF919F918F91F2
:100340003F912F910F900FBE0F901F9018952FB7D0
:10035000F8946091B3017091B4018091B5019091CE
:10036000B6012FBF08953FB7F8948091B7019091DF
:10037000B801A091B901B091BA0126B5A89B05C0FA
:100380002F3F19F00196A11DB11D3FBF6627782FA1
:10039000892F9A2F620F711D811D911D42E0660FFA
:1003A000771F881F991F4A95D1F70895CF92DF9242
:1003B000EF92FF92CF93DF936B017C010E94B30118
:1003C000EB01C114D104E104F10479F00E94B301FE
:1003D0006C1B7D0B683E7340A0F381E0C81AD10806
:1003E000E108F108C851DC4FECCFDF91CF91FF90CD
:1003F000EF90DF90CF9008950197009739F0880F24
:10040000991F880F991F02970197F1F70895789423
:1004100084B5826084BD84B5816084BD85B5826009
:1004200085BD85B5816085BDEEE6F0E080818160A7
:100430008083E1E8F0E010828081826080838081A7
:1004400081608083E0E8F0E0808181608083E1EB7F
:10045000F0E0808184608083E0EBF0E08081816067
:100460008083EAE7F0E0808184608083808182601D
:100470008083808181608083808180688083109206
:10048000C1000895833081F028F4813099F08230E2
:10049000A1F008958630A9F08730B9F08430D1F406
:1004A000809180008F7D03C0809180008F77809342
:1004B0008000089584B58F7702C084B58F7D84BD98
:1004C00008958091B0008F7703C08091B0008F7D38
:1004D0008093B0000895CF93DF9390E0FC01E4583F
:1004E000FF4F2491FC01E057FF4F8491882349F18D
:1004F00090E0880F991FFC01E255FF4FA591B49140
:100500008C559F4FFC01C591D4919FB7611108C0D4
:10051000F8948C91209582238C93888182230AC041
:10052000623051F4F8948C91322F309583238C9360
:100530008881822B888304C0F8948C91822B8C93C1
:100540009FBFDF91CF9108950F931F93CF93DF93B8
:100550001F92CDB7DEB7282F30E0F901E859FF4FE1
:100560008491F901E458FF4F1491F901E057FF4FCE
:1005700004910023C9F0882321F069830E9442027C
:100580006981E02FF0E0EE0FFF1FEC55FF4FA591C2
:10059000B4919FB7F8948C91611103C01095812399
:1005A00001C0812B8C939FBF0F90DF91CF911F9142
:1005B0000F910895FC0124853585F901E05CFF4F1A
:1005C00080819181F901EE5BFF4F20813181821B97
:1005D000930B8F7399270895FC0184859585FC0101
:1005E000E05CFF4F40815181FC01EE5BFF4F2081B9
:1005F00031814217530741F00190F081E02DE80F5F
:10060000F91F808190E008958FEF9FEF0895FC011E
:1006100084859585FC01E05CFF4F40815181FC01A0
:10062000EE5BFF4F208131814217530779F0A081A3
:10063000B181A80FB91F8C91208131812F5F3F4F6D
:100640002F7333273183208390E008958FEF9FEF3E
:100650000895FC0181A1882329F0A489B5898C9192
:1006600086FFFBCF11A20895CF93DF93FC0126856F
:100670003785D901A05CBF4F8D919C911197019650
:100680008F739927E901CE5BDF4F48815981841729
:100690009507D9F30D90BC91A02DA20FB31F6C93B9
:1006A000A685B785A05CBF4F11969C938E93A689B3
:1006B000B7892C9181E090E0078C02C0880F991FC8
:1006C0000A94E2F7282B2C9381E081A30488F58912
:1006D000E02D80818064808381E090E0DF91CF9184
:1006E00008951F920F920FB60F9211242F933F93EC
:1006F0004F938F939F93EF93FF938091C00082FD60
:100700001CC04091C60080916102909162020196E6
:100710008F739927209163023091640282179307A7
:1007200071F0E0916102F0916202EF5DFD4F408354
:10073000909362028093610202C08091C600FF9193
:10074000EF919F918F914F913F912F910F900FBEFD
:100750000F901F9018951F920F920FB60F921124B1
:100760002F933F938F939F93EF93FF9320911D02BD
:1007700030911E0280911F029091200228173907A4
:1007800031F48091C1008F7D8093C10014C0E0914D
:100790001F02F0912002E352FE4F208180911F0240
:1007A0009091200201968F73992790932002809355
:1007B0001F022093C600FF91EF919F918F913F916F
:1007C0002F910F900FBE0F901F901895CF92DF9230
:1007D000EF92FF92CF93DF93EC016A017B01411509
:1007E00081EE580761057105F9F0EC89FD8981E01A
:1007F00090E008A002C0880F991F0A94E2F7808356
:1008000060E079E08DE390E0A70196010E94390550
:10081000215031094109510956954795379527953A
:10082000211580E1380798F0EC89FD89108260E895
:1008300074E88EE190E0A70196010E9439052150ED
:100840003109410951095695479537952795E8890A
:10085000F9893083EA89FB89208319A2EE89FF890F
:10086000408181E090E09C010C8C02C0220F331F7C
:100870000A94E2F7422B4083EE89FF8940819C0174
:100880000D8C02C0220F331F0A94E2F7422B4083E3
:10089000EE89FF8940819C010E8C02C0220F331F1C
:1008A0000A94E2F7422B4083EE89FF8920810F8C66
:1008B00002C0880F991F0A94E2F7809582238083F3
:1008C000DF91CF91FF90EF90DF90CF90089510923D
:1008D000BE011092BD0188EE93E0A0E0B0E08093ED
:1008E000BF019093C001A093C101B093C20180E108
:1008F00091E09093BC018093BB0181E292E09093E0
:10090000C8018093C7018DED91E09093CA01809357
:10091000C90185EC90E09093CC018093CB0184ECED
:1009200090E09093CE018093CD0180EC90E0909385
:10093000D0018093CF0181EC90E09093D20180931D
:10094000D10182EC90E09093D4018093D30186ECA6
:1009500090E09093D6018093D50184E08093D701F5
:1009600083E08093D80187E08093D90185E080936C
:10097000DA0181E08093DB010895CF92DF92EF925C
:10098000FF920F931F93CF93DF936C017A01EB01DA
:10099000E60EF71E00E010E0CE15DF0561F069916C
:1009A000D601ED91FC910190F081E02DC6010995F1
:1009B000080F191FF1CFC801DF91CF911F910F913F
:1009C000FF90EF90DF90CF9008950F931F93CF93F8
:1009D000DF93EC010E94A701688779878A879B874C
:1009E000E881F9810680F781E02DCE01099597FF16
:1009F00015C00E94A701088519852A853B85601BC3
:100A0000710B820B930B0C811D812E813F8160172E
:100A100071078207930720F38FEF9FEFDF91CF914C
:100A20001F910F910895CF92DF92EF92FF920F9353
:100A30001F93CF93DF937C016A01EB0100E010E08C
:100A40000C151D0549F0C7010E94E50497FD04C07F
:100A500089930F5F1F4FF4CFC801DF91CF911F9192
:100A60000F91FF90EF90DF90CF900895F8940C9441
:100A70006105A1E21A2EAA1BBB1BFD010DC0AA1F16
:100A8000BB1FEE1FFF1FA217B307E407F50720F0F7
:100A9000A21BB30BE40BF50B661F771F881F991F72
:100AA0001A9469F760957095809590959B01AC01BB
:100AB000BD01CF010895EE0FFF1F0590F491E02DC9
:060AC0000994F894FFCF39
:100AC6000000650220000A00C4010D0000000000BD
:0C0AD6003403BD04DA020703EC0229031C
:00000001FF
