:100000000C945D000C9485000C9485000C94850084
:100010000C9485000C9485000C9485000C9485004C
:100020000C9485000C9485000C9485000C9485003C
:100030000C9485000C9485000C9485000C9485002C
:100040000C9462010C9485000C9476030C94B0031C
:100050000C9485000C9485000C9485000C9485000C
:100060000C9485000C94850000000007000201003C
:100070000003040600000000000000000102040864
:100080001020408001020408102001020408102002
:10009000040404040404040402020202020203032E
:1000A0000303030300000000250028002B000000CC
:1000B0000000240027002A006C0411241FBECFEF8B
:1000C000D8E0DEBFCDBF11E0A0E0B1E0E0EDFAE0A6
:1000D00002C005900D92AE31B107D9F712E0AEE142
:1000E000B1E001C01D92A736B107E1F710E0CAEBFD
:1000F000D0E004C02297FE010E946205C83BD107F0
:10010000C9F70E9455010C943B050C94000040E88F
:1001100055E260E070E08DEB91E00E94EB0361E05E
:1001200080910C010E94700261E080910A010C94A0
:1001300070022F923F924F925F926F927F928F92B6
:100140009F92AF92BF92CF92DF92EF92FF920F9366
:100150001F93CF93DF931C018B014A01EB01CC0F5E
:10016000DD1FC60FD71F2E01461A570A8AE08C9F43
:1001700030018D9F700C1124A12CB12CA814B9044E
:10018000ACF57101C12CD12CF701819191917F01C6
:1001900061E0019731F480910C010E94A902CE0127
:1001A0000DC080910C010E94A902C8010E940102A9
:1001B00060E080910C010E94A902C2010E9401022C
:1001C00060E080910C010E94A902C8010E94010216
:1001D000FFEFCF1ADF0A89E1C816D104A9F6C301DF
:1001E0000E940102EFEFAE1ABE0AC8CFDF91CF9195
:1001F0001F910F91FF90EF90DF90CF90BF90AF9045
:100200009F908F907F906F905F904F903F902F9036
:1002100008958DEB91E00E94DF021816190694F5FF
:100220004CE150E060E571E08DEB91E00E94180533
:10023000809150012AE08202C001112490930901AB
:100240008093080180915201992787FD90959093A2
:10025000070180930601A3E5B1E0EEE1F1E080E063
:100260002D91332727FD3095408151812417350783
:1002700019F03183208381E0329691E0AC36B907E2
:1002800079F7089580E008950E940901882361F0BC
:100290004091060150910701609108017091090198
:1002A0008EE191E00C94990008950E940C020E9446
:1002B00087000E9444016AE070E080E090E00E94C4
:1002C000DB01F7CF1F920F920FB60F9211242F93DD
:1002D0003F938F939F93AF93BF938091B50190917C
:1002E000B601A091B701B091B8013091B40123E0FB
:1002F000230F2D3720F40196A11DB11D05C026E85E
:10030000230F0296A11DB11D2093B4018093B50166
:100310009093B601A093B701B093B8018091B90151
:100320009091BA01A091BB01B091BC010196A11DB1
:10033000B11D8093B9019093BA01A093BB01B09312
:10034000BC01BF91AF919F918F913F912F910F90E1
:100350000FBE0F901F9018952FB7F8946091B501BC
:100360007091B6018091B7019091B8012FBF0895A7
:100370003FB7F8948091B9019091BA01A091BB0167
:10038000B091BC0126B5A89B05C02F3F19F001967E
:10039000A11DB11D3FBF6627782F892F9A2F620FAD
:1003A000711D811D911D42E0660F771F881F991FE7
:1003B0004A95D1F70895CF92DF92EF92FF92CF93B3
:1003C000DF936B017C010E94B801EB01C114D104E1
:1003D000E104F10479F00E94B8016C1B7D0B683ECA
:1003E0007340A0F381E0C81AD108E108F108C851B0
:1003F000DC4FECCFDF91CF91FF90EF90DF90CF906B
:1004000008950197009739F0880F991F880F991F59
:1004100002970197F1F70895789484B5826084BDBE
:1004200084B5816084BD85B5826085BD85B58160F8
:1004300085BDEEE6F0E0808181608083E1E8F0E058
:100440001082808182608083808181608083E0E887
:10045000F0E0808181608083E1EBF0E08081846066
:100460008083E0EBF0E0808181608083EAE7F0E068
:1004700080818460808380818260808380818160CC
:1004800080838081806880831092C10008958330CA
:1004900081F028F4813099F08230A1F008958630FF
:1004A000A9F08730B9F08430D1F4809180008F7D3D
:1004B00003C0809180008F7780938000089584B579
:1004C0008F7702C084B58F7D84BD08958091B00080
:1004D0008F7703C08091B0008F7D8093B000089526
:1004E000CF93DF9390E0FC01E458FF4F2491FC018F
:1004F000E057FF4F8491882349F190E0880F991FBE
:10050000FC01E255FF4FA591B4918C559F4FFC0122
:10051000C591D4919FB7611108C0F8948C91209532
:1005200082238C93888182230AC0623051F4F8942C
:100530008C91322F309583238C938881822B8883F2
:1005400004C0F8948C91822B8C939FBFDF91CF9144
:1005500008950F931F93CF93DF931F92CDB7DEB70C
:10056000282F30E0F901E859FF4F8491F901E45850
:10057000FF4F1491F901E057FF4F04910023C9F098
:10058000882321F069830E9447026981E02FF0E00F
:10059000EE0FFF1FEC55FF4FA591B4919FB7F89454
:1005A0008C91611103C01095812301C0812B8C9324
:1005B0009FBF0F90DF91CF911F910F910895FC0184
:1005C00024853585F901E05CFF4F80819181F90137
:1005D000EE5BFF4F20813181821B930B8F73992734
:1005E0000895FC0184859585FC01E05CFF4F408106
:1005F0005181FC01EE5BFF4F20813181421753078F
:1006000041F00190F081E02DE80FF91F808190E02A
:1006100008958FEF9FEF0895FC0184859585FC0177
:10062000E05CFF4F40815181FC01EE5BFF4F208178
:1006300031814217530779F0A081B181A80FB91F0A
:100640008C91208131812F5F3F4F2F73332731836E
:10065000208390E008958FEF9FEF0895FC0181A122
:10066000882329F0A489B5898C9186FFFBCF11A23C
:100670000895CF93DF93FC0126853785D901A05CCF
:10068000BF4F8D919C91119701968F739927E90126
:10069000CE5BDF4F4881598184179507D9F30D90C0
:1006A000BC91A02DA20FB31F6C93A685B785A05C4B
:1006B000BF4F11969C938E93A689B7892C9181E0A8
:1006C00090E0078C02C0880F991F0A94E2F7282B4C
:1006D0002C9381E081A30488F589E02D80818064DA
:1006E000808381E090E0DF91CF9108951F920F9277
:1006F0000FB60F9211242F933F934F938F939F9395
:10070000EF93FF938091C00082FD1CC04091C60012
:10071000809163029091640201968F7399272091D2
:100720006502309166028217930771F0E0916302CF
:10073000F0916402ED5DFD4F4083909364028093DD
:10074000630202C08091C600FF91EF919F918F914B
:100750004F913F912F910F900FBE0F901F901895C2
:100760001F920F920FB60F9211242F933F938F93E6
:100770009F93EF93FF9320911F023091200280916D
:100780002102909122022817390731F48091C1008B
:100790008F7D8093C10014C0E0912102F09122026C
:1007A000E152FE4F20818091210290912202019618
:1007B0008F73992790932202809321022093C60081
:1007C000FF91EF919F918F913F912F910F900FBECD
:1007D0000F901F901895CF92DF92EF92FF92CF93D8
:1007E000DF93EC016A017B01411581EE5807610539
:1007F0007105F9F0EC89FD8981E090E008A002C064
:10080000880F991F0A94E2F7808360E079E08DE316
:1008100090E0A70196010E943E052150310941094F
:1008200051095695479537952795211580E1380749
:1008300098F0EC89FD89108260E874E88EE190E020
:10084000A70196010E943E05215031094109510935
:100850005695479537952795E889F9893083EA8930
:10086000FB89208319A2EE89FF89408181E090E015
:100870009C010C8C02C0220F331F0A94E2F7422B1A
:100880004083EE89FF8940819C010D8C02C0220FBC
:10089000331F0A94E2F7422B4083EE89FF8940819F
:1008A0009C010E8C02C0220F331F0A94E2F7422BE8
:1008B0004083EE89FF8920810F8C02C0880F991F29
:1008C0000A94E2F7809582238083DF91CF91FF9095
:1008D000EF90DF90CF9008951092C0011092BF0169
:1008E00088EE93E0A0E0B0E08093C1019093C20154
:1008F000A093C301B093C40182E191E09093BE0143
:100900008093BD0183E292E09093CA018093C90174
:100910008FED91E09093CC018093CB0185EC90E03A
:100920009093CE018093CD0184EC90E09093D00120
:100930008093CF0180EC90E09093D2018093D1011D
:1009400081EC90E09093D4018093D30182EC90E00D
:100950009093D6018093D50186EC90E09093D801D6
:100960008093D70184E08093D90183E08093DA01FA
:1009700087E08093DB0185E08093DC0181E0809358
:10098000DD010895CF92DF92EF92FF920F931F93B4
:10099000CF93DF936C017A01EB01E60EF71E00E0C6
:1009A00010E0CE15DF0561F06991D601ED91FC9163
:1009B0000190F081E02DC6010995080F191FF1CFB4
:1009C000C801DF91CF911F910F91FF90EF90DF90C1
:1009D000CF9008950F931F93CF93DF93EC010E9464
:1009E000AC01688779878A879B87E881F9810680CF
:1009F000F781E02DCE01099597FF15C00E94AC014B
:100A0000088519852A853B85601B710B820B930B2A
:100A10000C811D812E813F8160177107820793072A
:100A200020F38FEF9FEFDF91CF911F910F910895EA
:100A3000CF92DF92EF92FF920F931F93CF93DF93AA
:100A40007C016A01EB0100E010E00C151D0549F086
:100A5000C7010E94EA0497FD04C089930F5F1F4FEE
:100A6000F4CFC801DF91CF911F910F91FF90EF90CC
:100A7000DF90CF900895F8940C946605A1E21A2EA9
:100A8000AA1BBB1BFD010DC0AA1FBB1FEE1FFF1F32
:100A9000A217B307E407F50720F0A21BB30BE40B82
:100AA000F50B661F771F881F991F1A9469F76095C9
:100AB0007095809590959B01AC01BD01CF01089583
:100AC000EE0FFF1F0590F491E02D0994F894FFCFED
:100AD0000000670220000A00C40108000D000000A9
:0E0AE00000003903C204DF020C03F1022E03F2
:00000001FF
