:100000000C9462000C948A000C948A000C948A0070
:100010000C948A000C948A000C948A000C948A0038
:100020000C948A000C948A000C948A000C948A0028
:100030000C948A000C948A000C948A000C948A0018
:100040000C94EB030C948A000C9428060C94620622
:100050000C948A000C948A000C948A000C948A00F8
:100060000C948A000C948A00000000070002010032
:100070000003040600000000000000000102040864
:100080001020408001020408102001020408102002
:10009000040404040404040402020202020203032E
:1000A00003030303000000002300260029000000D2
:1000B0000000250028002B0000000000240027007D
:1000C0002A00230711241FBECFEFD8E0DEBFCDBF2B
:1000D00011E0A0E0B1E0EEE8F0E102C005900D9281
:1000E000AA31B107D9F713E0AAE1B1E001C01D922E
:1000F000A631B107E1F710E0C4ECD0E004C02297CC
:10010000FE010E944108C23CD107C9F70E94E403E6
:100110000C94F2070C9400009B01245A3E4F97FD6B
:1001200010C0AC01460F571F4730514044F4FC014A
:10013000E45AFE4F4081F901E80FF91F408301970F
:10014000EECF0895CF93DF93EC01E8EEF3E0BF012B
:100150000E9409089C01CE01821B930BBF010E94E3
:100160000908EB01C9010E948A041C161D064CF403
:10017000BE01882777FD8095982FDF91CF910C9451
:100180006404DF91CF9108950F931F93CF93DF9372
:1001900000D0CDB7DEB78B0149835A830E948C0013
:1001A0004981E42F5A81F52FACE5B1E0CD018C55A2
:1001B0009140801791071CF481918D93F7CF0F9098
:1001C0000F90DF91CF911F910F910895CF93DF93FF
:1001D000EB01882311F061E001C060E0809108012B
:1001E0000E943205CE01DF91CF910C94A200EF92D4
:1001F000FF920F931F93CF93DF93E82E8B01C8E0FC
:10020000D0E080E8F82EB8018F2D8E210E94E60004
:10021000F69421972097B9F7DF91CF911F910F9115
:10022000FF90EF900895EF92FF920F931F93CF935B
:10023000DF938C017B01CCE5D1E0CE018C55914060
:10024000801791072CF4B70189910E94F700F5CF30
:10025000DF91CF911F910F91FF90EF9008950F9331
:100260001F93CF93DF938C01CB01FA01B8010E9459
:100270000908EB01C901BF010E940908E017F10755
:100280003CF46C177D076CF4F195E195F10909C018
:10029000C617D7072CF4EE27FF27EC1BFD0B01C078
:1002A000FE01CF01DF91CF911F910F9108956F92C1
:1002B0007F928F929F92AF92BF92CF92DF92EF92F6
:1002C000FF920F931F93CF93DF939C016AE070E03E
:1002D0000E9409083B016531710554F0C90164E1D0
:1002E00070E00E9409084B0124E1622E712C03C0CA
:1002F0009AE0892E912CC0911A01D0911B01A12C5A
:10030000B12CC12CD12C00E010E0E12CF12CC61551
:10031000D705ACF4809106010E946805019731F47D
:100320008FEFE81AF80ACC0EDD1E04C00F5F1F4FD6
:10033000AC0EBD1EC4010E948A042196E8CF95012F
:10034000A801B601C7010E942F0190931B01809361
:100350001A0181E0E016F1060CF480E0DF91CF9104
:100360001F910F91FF90EF90DF90CF90BF90AF90D3
:100370009F908F907F906F900895AF92BF92CF9291
:10038000DF92EF92FF920F931F93CF93DF937B0146
:100390005A01690100E010E0C0E0D0E0CA15DB05B9
:1003A0007CF4EC14FD0464F4C7010E945701811130
:1003B00002C0219602C0C0E0D0E00F5F1F4FEECF19
:1003C000C801DF91CF911F910F91FF90EF90DF90C7
:1003D000CF90BF90AF9008958F929F92AF92BF92AF
:1003E000CF92DF92EF92FF920F931F93CF93DF9301
:1003F0006C018B01EA015901C6010E94570181116C
:1004000008C0C017D1072CF1F501E45AFE4F108245
:1004100022C0C017D107C4F737E0E32EF12C40E823
:10042000842E50E8952E082D10E015950795802E06
:10043000C6010E9457018111902A81E0E81AF10853
:10044000E114F10481F72796F501E45AFE4F9082FA
:1004500002C02196D1CFCE01DF91CF911F910F9194
:10046000FF90EF90DF90CF90BF90AF909F908F90D4
:100470000895CF92DF92EF92FF920F931F93CF9345
:10048000DF938C017B01C8E0D0E070E8C72ED12C4F
:10049000C8010E9457018111DC28C694219720973A
:1004A000B9F7F701E45AFE4FD08288E090E0DF917F
:1004B000CF911F910F91FF90EF90DF90CF90089513
:1004C000AF92BF92CF92DF92EF92FF920F931F9362
:1004D000CF93DF935C017B0189010E94BD016C0118
:1004E00020E030E0AC01B801C7010E94EC01C80E69
:1004F000D91EC1E0D0E00C151D056CF0BE01C7018E
:100500000E943902C80ED91E2196CA15DB059CF33C
:1005100080E090E002C081E090E0DF91CF911F91F8
:100520000F91FF90EF90DF90CF90BF90AF90089524
:10053000CF92DF92EF920F931F93CF93DF93EA0155
:10054000F60180836183CA0160E071E00E940908BE
:100550008283AE01481B510957FF02C041505F4FD3
:1005600053832483C80160E071E00E9409088583F9
:10057000081B110917FF02C001501F4F1683E782A5
:10058000DF91CF911F910F91EF90DF90CF90089561
:10059000CF92DF92EF92FF920F931F93FC01808125
:1005A00090E0DB018D939C93818190E0DA018D9343
:1005B0009C934281838190E0982F8827840F911D1E
:1005C000D9018D939C93848190E0D8018D939C9365
:1005D0002581868190E0982F8827820F911DD70171
:1005E0008D939C93878190E0F601918380831F9186
:1005F0000F91FF90EF90DF90CF9008954F925F9210
:100600006F927F928F929F92AF92BF92CF92DF9222
:10061000EF92FF920F931F93CF93DF93CDB7DEB787
:1006200028970FB6F894DEBF0FBECDBF4C015B011B
:100630003A01290181E08816910461F092E089165F
:10064000910471F49801A201B301C5010E946002F6
:100650007C0106C0BA01C5010E941301E12CF12CF6
:10066000CE0101966C019201A301B501C4010E9463
:100670009802A60168E070E0C5010E94C400E09104
:100680006C02F0916D02A501485F5F4F0280F3811B
:10069000E02D6CE571E08CE692E0099528960FB6A6
:1006A000F894DEBF0FBECDBFDF91CF911F910F91A8
:1006B000FF90EF90DF90CF90BF90AF909F908F9082
:1006C0007F906F905F904F9008952EE040E855E244
:1006D00060E070E08CE692E00E949D0661E080910F
:1006E00008010E94F90460E0809106010C94F9046D
:1006F000CF92DF92EF92FF920F931F93CF93DF93EE
:10070000CDB7DEB72C970FB6F894DEBF0FBECDBFC6
:100710008CE692E00E949105181619060CF045C06F
:1007200048E050E06CE571E08CE692E00E94CF0773
:10073000CE0101966C01CE0103967C018E010B5F08
:100740001F4F9E01295F3F4FAE01475F5F4FBE01C4
:10075000655F7F4F8CE591E00E94C80249855A850C
:100760006CE571E08CE692E00E94CF07E980FA80A8
:100770000B811C812D813E814F81588569857A8549
:100780008B859C850E94FE028CE692E00E9491057A
:10079000803491050CF4BCCF40E450E06CE171E092
:1007A0008CE692E00E94CF07EFCF2C960FB6F8941C
:1007B000DEBF0FBECDBFDF91CF911F910F91FF9094
:1007C000EF90DF90CF9008950E9495040E946503FA
:1007D0000E947803FDCF1F920F920FB60F92112443
:1007E0002F933F938F939F93AF93BF938091640216
:1007F00090916502A0916602B09167023091630208
:1008000023E0230F2D3720F40196A11DB11D05C053
:1008100026E8230F0296A11DB11D20936302809349
:10082000640290936502A0936602B0936702809180
:10083000680290916902A0916A02B0916B020196E0
:10084000A11DB11D8093680290936902A0936A0272
:10085000B0936B02BF91AF919F918F913F912F9178
:100860000F900FBE0F901F9018952FB7F8946091BE
:1008700064027091650280916602909167022FBFB9
:1008800008953FB7F8948091680290916902A09111
:100890006A02B0916B0226B5A89B05C02F3F19F0E4
:1008A0000196A11DB11D3FBF6627782F892F9A2F72
:1008B000620F711D811D911D42E0660F771F881F19
:1008C000991F4A95D1F70895CF92DF92EF92FF9248
:1008D000CF93DF936B017C010E944104EB01C114B3
:1008E000D104E104F10479F00E9441046C1B7D0BFA
:1008F000683E7340A0F381E0C81AD108E108F1080E
:10090000C851DC4FECCFDF91CF91FF90EF90DF909B
:10091000CF9008950197009739F0880F991F880F9D
:10092000991F02970197F1F70895789484B5826032
:1009300084BD84B5816084BD85B5826085BD85B583
:10094000816085BDEEE6F0E0808181608083E1E832
:10095000F0E010828081826080838081816080836A
:10096000E0E8F0E0808181608083E1EBF0E080816D
:1009700084608083E0EBF0E0808181608083EAE73F
:10098000F0E08081846080838081826080838081C8
:10099000816080838081806880831092C100089587
:1009A000833081F028F4813099F08230A1F00895ED
:1009B0008630A9F08730B9F08430D1F4809180007E
:1009C0008F7D03C0809180008F7780938000089591
:1009D00084B58F7702C084B58F7D84BD08958091E2
:1009E000B0008F7703C08091B0008F7D8093B000FE
:1009F0000895CF93DF9390E0FC01E458FF4F2491DA
:100A0000FC01E057FF4F8491882349F190E0880F63
:100A1000991FFC01E854FF4FA591B49182559F4F57
:100A2000FC01C591D4919FB7611108C0F8948C91D5
:100A3000209582238C93888182230AC0623051F4EE
:100A4000F8948C91322F309583238C938881822B5C
:100A5000888304C0F8948C91822B8C939FBFDF9184
:100A6000CF9108950F931F93CF93DF931F92CDB72C
:100A7000DEB7282F30E0F901E859FF4F8491F901E2
:100A8000E458FF4F1491F901E057FF4F0491002300
:100A9000C9F0882321F069830E94D0046981E02F86
:100AA000F0E0EE0FFF1FE255FF4FA591B4919FB705
:100AB000F8948C91611103C01095812301C0812BA2
:100AC0008C939FBF0F90DF91CF911F910F9108954D
:100AD000CF93DF93282F30E0F901E859FF4F84913D
:100AE000F901E458FF4FD491F901E057FF4FC49149
:100AF000CC2391F081110E94D004EC2FF0E0EE0F96
:100B0000FF1FEC55FF4FA591B4912C912D2381E04F
:100B100090E021F480E002C080E090E0DF91CF918E
:100B20000895FC0124853585F901E05CFF4F808143
:100B30009181F901EE5BFF4F20813181821B930B84
:100B40008F7399270895FC0184859585FC01E05CED
:100B5000FF4F40815181FC01EE5BFF4F20813181CD
:100B60004217530741F00190F081E02DE80FF91F83
:100B7000808190E008958FEF9FEF0895FC018485B8
:100B80009585FC01E05CFF4F40815181FC01EE5BEB
:100B9000FF4F208131814217530779F0A081B18145
:100BA000A80FB91F8C91208131812F5F3F4F2F7388
:100BB00033273183208390E008958FEF9FEF0895CE
:100BC000FC0181A1882329F0A489B5898C9186FF35
:100BD000FBCF11A20895CF93DF93FC0126853785C3
:100BE000D901A05CBF4F8D919C91119701968F7395
:100BF0009927E901CE5BDF4F48815981841795071A
:100C0000D9F30D90BC91A02DA20FB31F6C93A685B4
:100C1000B785A05CBF4F11969C938E93A689B78928
:100C20002C9181E090E0078C02C0880F991F0A94F4
:100C3000E2F7282B2C9381E081A30488F589E02D2D
:100C400080818064808381E090E0DF91CF9108957E
:100C50001F920F920FB60F9211242F933F934F9331
:100C60008F939F93EF93FF938091C00082FD1CC0F0
:100C70004091C600809112039091130301968F73E7
:100C8000992720911403309115038217930771F06F
:100C9000E0911203F0911303EE52FD4F40839093C5
:100CA00013038093120302C08091C600FF91EF915D
:100CB0009F918F914F913F912F910F900FBE0F9069
:100CC0001F9018951F920F920FB60F9211242F9319
:100CD0003F938F939F93EF93FF932091CE02309198
:100CE000CF028091D0029091D1022817390731F4B8
:100CF0008091C1008F7D8093C10014C0E091D0022B
:100D0000F091D102E257FD4F20818091D002909165
:100D1000D10201968F7399279093D1028093D002CC
:100D20002093C600FF91EF919F918F913F912F915A
:100D30000F900FBE0F901F901895BF92CF92DF9229
:100D4000EF92FF92CF93DF93EC016A017B01B22E09
:100D5000411581EE580761057105F9F0EC89FD89AF
:100D600081E090E008A002C0880F991F0A94E2F782
:100D7000808360E079E08DE390E0A70196010E9416
:100D80001D0821503109410951095695479537955C
:100D90002795211580E1380798F0EC89FD891082AC
:100DA00060E874E88EE190E0A70196010E941D08BA
:100DB0002150310941095109569547953795279595
:100DC000E889F9893083EA89FB892083E88DF98DE8
:100DD000B082EE89FF89408181E090E09C010C8C1B
:100DE00002C0220F331F0A94E2F7422B4083EE89A0
:100DF000FF8940819C010D8C02C0220F331F0A9491
:100E0000E2F7422B4083EE89FF8940819C010E8CE2
:100E100002C0220F331F0A94E2F7422B4083EE896F
:100E2000FF8920810F8C02C0880F991F0A94E2F776
:100E3000809582238083DF91CF91FF90EF90DF90A8
:100E4000CF90BF90089510926F0210926E0288EEBC
:100E500093E0A0E0B0E08093700290937102A093C1
:100E60007202B09373028EE091E090936D028093D2
:100E70006C0282ED92E090937902809378028EE882
:100E800092E090937B0280937A0285EC90E09093BD
:100E90007D0280937C0284EC90E090937F028093AB
:100EA0007E0280EC90E0909381028093800281EC3E
:100EB00090E0909383028093820282EC90E0909382
:100EC00085028093840286EC90E090938702809361
:100ED000860284E08093880283E08093890287E021
:100EE00080938A0285E080938B0281E080938C025C
:100EF0000895CF92DF92EF92FF920F931F93CF93BB
:100F0000DF936C017A01EB01E60EF71E00E010E0C2
:100F1000CE15DF0561F06991D601ED91FC9101904C
:100F2000F081E02DC6010995080F191FF1CFC80106
:100F3000DF91CF911F910F91FF90EF90DF90CF90B5
:100F400008950F931F93CF93DF93EC010E94350414
:100F5000688779878A879B87E881F9810680F7818E
:100F6000E02DCE01099597FF15C00E943504088534
:100F700019852A853B85601B710B820B930B0C81B5
:100F80001D812E813F81601771078207930720F32F
:100F90008FEF9FEFDF91CF911F910F910895CF9227
:100FA000DF92EF92FF920F931F93CF93DF937C0119
:100FB0006A01EB0100E010E00C151D0549F0C701C6
:100FC0000E94A10797FD04C089930F5F1F4FF4CFC4
:100FD000C801DF91CF911F910F91FF90EF90DF90AB
:100FE000CF900895F8940C944508AA1BBB1B51E1BF
:100FF00007C0AA1FBB1FA617B70710F0A61BB70B89
:10100000881F991F5A95A9F780959095BC01CD012D
:10101000089597FB072E16F4009407D077FD09D0AA
:101020000E94F50707FC05D03EF4909581959F4FEF
:101030000895709561957F4F0895A1E21A2EAA1B1D
:10104000BB1BFD010DC0AA1FBB1FEE1FFF1FA21778
:10105000B307E407F50720F0A21BB30BE40BF50B75
:10106000661F771F881F991F1A9469F760957095FE
:10107000809590959B01AC01BD01CF010895EE0FC5
:0E108000FF1F0590F491E02D0994F894FFCF26
:10108E000000160320000C00080000000000EB0515
:0A109E0079079105BE05A305E005E2
:00000001FF
