:100000000C9462000C9455050C9482050C948A00A3
:100010000C948A000C948A000C948A000C948A0038
:100020000C948A000C948A000C948A000C948A0028
:100030000C948A000C948A000C948A000C948A0018
:100040000C94AF050C948A000C945C080C949608F0
:100050000C948A000C948A000C948A000C948A00F8
:100060000C948A000C948A00000000070002010032
:100070000003040600000000000000000102040864
:100080001020408001020408102001020408102002
:10009000040404040404040402020202020203032E
:1000A00003030303000000002300260029000000D2
:1000B0000000250028002B0000000000240027007D
:1000C0002A00570911241FBECFEFD8E0DEBFCDBFF5
:1000D00011E0A0E0B1E0EAE5F5E102C005900D9283
:1000E000A631B107D9F713E0A6E1B1E001C01D9236
:1000F000A63FB107E1F710E0C4ECD0E004C02297BE
:10010000FE010E94A70AC23CD107C9F70E949600CF
:100110000C942A0A0C94000080E895E20E9469047D
:1001200088E090E00E942D030C94C101CF93DF93EF
:10013000CDB7DEB7A1970FB6F894DEBF0FBECDBF27
:100140000E949E060E948C003BE0B32E43E0A42E4A
:100150000E9427058823E1F3CE0147960E9473048D
:10016000FE017796DE0111968B2D01900D928A95F6
:10017000E1F78F89813009F1823089F5898322E0A6
:10018000C22EDA80EB80FC800D811E812F813885A4
:1001900049855A856B85CE010C960E94CE01EC8470
:1001A000FD840E851F85288939894A895B896C8978
:1001B0007D898E890E94C704CBCF8983CC24C394C8
:1001C000DA80EB80FC800D811E812F813885498586
:1001D0005A856B85CE010C960E943403E0CFAC8A21
:1001E000DECF86E191E008958F929F92AF92BF9209
:1001F000CF92DF92EF92FF92CF93DF938091330201
:100200000E946B07892B09F06BC00E9405066B01E9
:100210007C018090270290902802A0902902B09043
:100220002A022091210230912202E0911F02F091D6
:10023000200240911B0250911C0260911D0270919E
:100240001E02C0911502D0911602480D591D6A1D5B
:100250007B1D4C155D056E057F05B8F5A601481997
:100260005909BA01882777FD8095982F4F01AA2454
:1002700097FCA094BA2C680D791D8A1D9B1D4427FC
:1002800037FD4095542F0E94640A49015A01CE015E
:1002900001966FEF7FE70E94500AC0922F02D09222
:1002A0003002E0923102F0923202C0922302D092E8
:1002B0002402E0922502F092260290921802809287
:1002C00017029093160280931502DF91CF91FF9051
:1002D000EF90DF90CF90BF90AF909F908F90089558
:1002E0000E9405066B017C0180912F0290913002E3
:1002F000A0913102B0913202E0912102F0912202EC
:10030000C0911F02D091200240911B0250911C020B
:1003100060911D0270911E02480F591F6A1F7B1FBA
:100320004C155D056E057F0580F6B601681B790BDF
:10033000882777FD8095982F4E01AA2497FCA094DA
:10034000BA2C680D791D8A1D9B1D9F01442737FD1E
:100350004095542F0E94640AC0922702D09228022E
:10036000E0922902F0922A02C0922B02D0922C0233
:10037000E0922D02F0922E0230931A02209319027D
:10038000A4CF82E090E0909334028093330241E066
:1003900050E064EF70E080E00C9434052F923F92BF
:1003A0004F925F926F927F928F929F92AF92BF9285
:1003B000CF92DF92EF92FF920F931F93CF93DF9331
:1003C000CDB7DEB72F970FB6F894DEBF0FBECDBF07
:1003D0005C01C982DA82EB82FC820D831E832F834B
:1003E000388749875A876B87EB80FC800E811F8195
:1003F000F0922202E092210282E390E090932002A8
:1004000080931F02809121029091220220911F026D
:1004100030912002821B930BAA2797FDA095BA2F3B
:1004200080931B0290931C02A0931D02B0931E02A6
:1004300020911502309116023E872D878BE0FE0138
:100440003196D50101900D928A95E1F70E94F90548
:100450002B013C019701D8010E942D0A61507109BE
:100460008109910928EE33E040E050E00E94860ABD
:100470002F5F3F4F4F4F5F4F420E531E641E751E3E
:10048000E0E82E2E312C00E010E0C12CD12C1C868F
:100490001F860E94F905641575058605970508F005
:1004A000ADC08091150290911602AD85BE85A8174A
:1004B000B90709F4CDC0E0911502F0911602FE874C
:1004C000ED87E0901902F0901A0280901702909048
:1004D00018022F85211115C08D8190E0E816F906CC
:1004E000C4F288169906ACF661E088E00E9417070E
:1004F000D5011996ED91FC911A97B5E4B68F21E0DC
:100500002F870115110519F4C114D104A9F11E1486
:100510001F0494F5D50119962D913C911A971196C7
:100520004C91119750E018966C9180E090E005C0D6
:10053000269401968E159F05E1F00F5F1F4F08303E
:100540001105B1F7F901EC0DFD1D3082BFEFCB1A9B
:10055000DB0AC416D5060CF46FC060E000E8202E5C
:10056000312C00E010E0E1E0EC8701968E159F054C
:1005700021F7D50118966C9318141904DCF5E12CB9
:10058000F12C07C026943FEFE31AF30AE814F904AC
:1005900089F161E088E00E94170782E390E00E9401
:1005A000930660E088E00E94170732280F5F1F4F14
:1005B0000830110539F7D5011996ED91FC911A977C
:1005C000EC0DFD1D3082BFEFCB1ADB0AF5018181F6
:1005D00090E0C816D906B4F1108610E8212E312C0F
:1005E00000E010E021E02C873FEFE31AF30AE81463
:1005F000F90479F62C85222309F44BCF60E088E0DA
:100600000E941707C5012F960FB6F894DEBF0FBEE4
:10061000CDBFDF91CF911F910F91FF90EF90DF90B1
:10062000CF90BF90AF909F908F907F906F905F9092
:100630004F903F902F90089570E8272E312C00E0C6
:1006400010E077CFB0E82B2E312C00E010E09BCFEC
:100650008AE090E00E9493061CCF8093350290932D
:10066000360261E00C94D9062F923F924F925F922E
:100670006F927F928F929F92AF92BF92CF92DF92B2
:10068000EF92FF920F931F93CF93DF93CDB7DEB717
:100690006F970FB6F894DEBF0FBECDBF9F8F8E8FC2
:1006A000C982DA82EB82FC820D831E832F83388716
:1006B00049875A876B874B815C81632F70E07D8B04
:1006C0006C8B049F7001059FF00C11244D2C512C54
:1006D0009701369527953695279536952795A5EC5C
:1006E000B0E20E942D0A929582958F7089279F70A3
:1006F0008927E8EEF3E0DC01AE9FC001AF9F900DCB
:10070000BE9F900D11249701281B390B398B288B24
:100710009C01369527953695279536952795A5EC16
:10072000B0E20E942D0A929582958F7089279F7062
:1007300089279B8B8A8B9A01369527953695279525
:10074000369527950E942D0A3C01729462947FE0B1
:1007500067226724772267246E9EC0016F9E900DEA
:100760007E9E900D11243A01681A790A9C013695F3
:10077000279536952795369527950E942D0A9295AF
:1007800082958F7089279F7089279D878C871F8608
:100790001E866C01E12CF12C8A899B89BC0180E0CA
:1007A00090E06A8F7B8F8C8F9D8FCE8ADF8AE88E58
:1007B000F98E4114510409F44DC02A843B84E12C84
:1007C000F12C8E889F88A88CB98CD101CD901D0109
:1007D0002C853D8508E010E0A0E8DA2E232B79F087
:1007E00029C060E0809135020E941707C3010E9472
:1007F0009306D694015011090115110521F18D2D93
:100800008C2179F361E0809135020E941707EECFC9
:1008100060E0809135020E941707C3010E94930691
:10082000C501B4010E942906D69401501109011591
:10083000110549F08D2D8C2159F361E0809135022D
:100840000E941707EACF3FEFE31AF30AE414F50416
:100850000CF4BBCF888999890E9493066A897B89A9
:10086000672B31F06A8D7B8D8C8D9D8D0E942906C2
:100870002E853F852F5F3F4F3F872E876C897D896F
:10088000621773070CF095CF19868BE0FE01319645
:10089000AE8DBF8D01900D928A95E1F78E8D9F8D63
:1008A0006F960FB6F894DEBF0FBECDBFDF91CF912C
:1008B0001F910F91FF90EF90DF90CF90BF90AF907E
:1008C0009F908F907F906F905F904F903F902F9070
:1008D0000895AC01662757FD6095762F2EE08CE4D5
:1008E00093E00C94D108FF920F931F93CF93DF9363
:1008F000EC0149E050E067E372E08CE493E00E9491
:10090000DA09F090380220913A0230E0322F2227A3
:1009100080913902280F311D60913B0280913D0288
:1009200090E0982F882740913C02840F911D5091B0
:100930003E0240913F02709137027883F9823B83F7
:100940002A836C839E838D835F8348870F2D10E0FD
:10095000A80167E372E08CE493E00E94DA090E9448
:10096000F100FF2059F0E7E3F2E0DC01A801495C67
:100970005D4F21912D93E417F507D9F789879A8761
:10098000CE01DF91CF911F910F91FF900895EF92CB
:10099000FF920F931F93CF93DF93CDB7DEB72B97C3
:1009A0000FB6F894DEBF0FBECDBFE982FA820B838B
:1009B0001C83B22F2D833E834F83588769877A87A4
:1009C0008B87EB81FC818E819F81E0923702F092D0
:1009D0003802E0933902EE27F0933A02B0933B02DB
:1009E00080933C02882790933D0250933E0260938F
:1009F0003F028B85FF2041F1A72FB82FE0E4F2E002
:100A00004F2D50E0CA01805C9D4F2D912193E81736
:100A1000F907D9F7E0914C03F0914D03475F5F4F21
:100A20000280F381E02D67E372E08CE493E02B9683
:100A30000FB6F894DEBF0FBECDBFDF91CF911F91EF
:100A40000F91FF90EF90099440E050E0E3CF8CE4E9
:100A500093E00E94BC0721E01816190614F4822FB7
:100A6000089520E0822F0895823008F00895E82F3D
:100A7000F0E0EE0FFF1FE15CFC4F7183608381307B
:100A800061F480916900440F551F440F551F837F07
:100A9000842B80936900E99A0895809169008C7F86
:100AA000842B80936900E89A08951F920F920FB6E5
:100AB0000F9211242F933F934F935F936F937F93E4
:100AC0008F939F93AF93BF93EF93FF9380913F03D7
:100AD00090914003892B29F0E0913F03F09140036E
:100AE0000995FF91EF91BF91AF919F918F917F9168
:100AF0006F915F914F913F912F910F900FBE0F908B
:100B00001F9018951F920F920FB60F9211242F93DA
:100B10003F934F935F936F937F938F939F93AF9385
:100B2000BF93EF93FF938091410390914203892BF0
:100B300029F0E0914103F09142030995FF91EF9173
:100B4000BF91AF919F918F917F916F915F914F91E5
:100B50003F912F910F900FBE0F901F9018951F92ED
:100B60000F920FB60F9211242F933F938F939F9361
:100B7000AF93BF938091440390914503A0914603A6
:100B8000B09147033091430323E0230F2D3768F1E1
:100B900026E8230F0296A11DB11D209343038093E5
:100BA000440390934503A0934603B0934703809179
:100BB000480390914903A0914A03B0914B030196D9
:100BC000A11DB11D8093480390934903A0934A034C
:100BD000B0934B03BF91AF919F918F913F912F9114
:100BE0000F900FBE0F901F9018950196A11DB11D7B
:100BF000D4CF2FB7F894609144037091450380914E
:100C00004603909147032FBF08953FB7F894809112
:100C1000480390914903A0914A03B0914B0326B534
:100C2000A89B05C02F3F19F00196A11DB11D3FBF24
:100C30006627782F892F9A2F620F711D811D911DB4
:100C4000660F771F881F991F660F771F881F991FD0
:100C50000895CF92DF92EF92FF923FB7F894C09041
:100C60004803D0904903E0904A03F0904B0326B527
:100C7000A89B07C02F3F29F04FEFC41AD40AE40AFB
:100C8000F40A3FBFFE2CED2CDC2CCC24C20ED11C70
:100C9000E11CF11CCC0CDD1CEE1CFF1CCC0CDD1C83
:100CA000EE1CFF1C96016115710581059105B1F1DE
:100CB000FFB7F894C0904803D0904903E0904A03EE
:100CC000F0904B03E6B5A89B07C0EF3F29F04FEF2C
:100CD000C41AD40AE40AF40AFFBFFE2CED2CDC2C63
:100CE000CC24CE0ED11CE11CF11CCC0CDD1CEE1C66
:100CF000FF1CCC0CDD1CEE1CFF1CA601421B530B81
:100D0000483E534080F26150710981099109285190
:100D10003C4F611571058105910551F6FF90EF90EB
:100D2000DF90CF9008950197009739F0880F991FB1
:100D3000880F991F02970197F1F70895789484B569
:100D4000826084BD84B5816084BD85B5826085BDC7
:100D500085B5816085BDEEE6F0E0808181608083AD
:100D6000E1E8F0E010828081826080838081816090
:100D70008083E0E8F0E0808181608083E1EBF0E057
:100D8000808184608083E0EBF0E0808181608083FB
:100D9000EAE7F0E0808184608083808182608083E4
:100DA0008081816080838081806880831092C1000F
:100DB0000895CF93DF9390E0FC01E458FF4F249116
:100DC000FC01E057FF4F84918823B9F090E0880F31
:100DD000991FFC01E854FF4FA591B49182559F4F94
:100DE000FC01C591D4919FB7662351F06230A1F008
:100DF000F8948C91822B8C939FBFDF91CF910895B3
:100E0000F8948C91209582238C9388818223888307
:100E10009FBFDF91CF910895F8948C91322F309538
:100E200083238C938881822B88839FBFE6CF90E0B9
:100E3000FC01E859FF4F2491FC01E458FF4F349125
:100E4000FC01E057FF4F8491882399F0211116C0CF
:100E5000E82FF0E0EE0FFF1FE255FF4FA591B49190
:100E60008FB7F8949C91611105C0309593239C93A2
:100E70008FBF0895932B9C938FBFFBCF233029F115
:100E800060F02630E1F02730A1F0243009F790918E
:100E900080009F7D90938000DBCF213031F02230A5
:100EA000B9F694B59F7D94BDD3CF94B59F7794BD8B
:100EB000CFCF9091B0009F7D9093B000C9CF90911B
:100EC000B0009F779093B000C3CF909180009F7740
:100ED00090938000BDCF90E0FC01E859FF4F249132
:100EE000FC01E458FF4F3491FC01E057FF4F84911F
:100EF000882391F0211113C0E82FF0E0EE0FFF1FBF
:100F0000EC55FF4FA591B4912C91232381E090E003
:100F100009F0089580E0089580E090E0089523307E
:100F200029F160F02630E1F02730A1F0243021F7DC
:100F3000909180009F7D90938000DECF213031F032
:100F40002230D1F694B59F7D94BDD6CF94B59F77CE
:100F500094BDD2CF9091B0009F7D9093B000CCCF44
:100F60009091B0009F779093B000C6CF9091800091
:100F70009F7790938000C0CFFC0124853585F901CF
:100F8000E05CFF4F80819181F901EE5BFF4F208192
:100F90003181821B930B8F7399270895FC018485FF
:100FA0009585FC01E05CFF4F40815181FC01EE5BC7
:100FB000FF4F208131814217530741F00190F081AA
:100FC000E02DE80FF91F808190E008958FEF9FEFEB
:100FD0000895FC0184859585FC01E05CFF4F40810C
:100FE0005181FC01EE5BFF4F208131814217530795
:100FF00079F0A081B181A80FB91F8C912081318136
:101000002F5F3F4F2F7333273183208390E0089564
:101010008FEF9FEF0895FC0181A1882329F0A48917
:10102000B5898C9186FFFDCF11A20895CF93DF93F0
:10103000DC011E968D919C911F97EC01C05CDF4FE7
:10104000488159814F5F5F4F4F735527FC01EE5B1D
:10105000FF4F2081318124173507D9F3E881F981C9
:10106000E80FF91F60831E96ED91FC911F97E05CDD
:10107000FF4F518340835696ED91FC915797208105
:1010800081E090E05F960C905F9702C0880F991FF7
:101090000A94E2F7282B208381E091968C93919714
:1010A0005496ED91FC91559780818064808381E016
:1010B00090E0DF91CF9108951F920F920FB60F929B
:1010C00011242F933F934F938F939F93EF93FF930D
:1010D0008091C00082FD27C04091C6008091F2033C
:1010E0009091F30301968F7399272091F403309127
:1010F000F5038217930759F0E091F203F091F3039F
:10110000EE54FC4F40839093F3038093F203FF91DE
:10111000EF919F918F914F913F912F910F900FBE23
:101120000F901F9018958091C600F1CF1F920F92DB
:101130000FB60F9211242F933F938F939F93EF93AA
:10114000FF932091AE033091AF038091B003909153
:10115000B10328173907F9F0E091B003F091B1031A
:10116000E259FC4F20818091B0039091B103019628
:101170008F7399279093B1038093B0032093C60097
:10118000FF91EF919F918F913F912F910F900FBE03
:101190000F901F9018958091C1008F7D8093C100A2
:1011A000EFCFBF92CF92DF92EF92FF92CF93DF9378
:1011B000EC016A017B01B22E411581EE58076105F1
:1011C0007105F9F0EC89FD8981E090E008A002C08A
:1011D000880F991F0A94E2F7808360E079E08DE33D
:1011E00090E0A70196010E94640A2150310941094B
:1011F00051095695479537952795211580E1380770
:1012000098F0EC89FD89108260E874E88EE190E046
:10121000A70196010E94640A215031094109510930
:101220005695479537952795E889F9893083EA8956
:10123000FB892083E88DF98DB082EE89FF8940819A
:1012400081E090E09C010C8C02C0220F331F0A94B5
:10125000E2F7422B4083EE89FF8940819C010D8C8F
:1012600002C0220F331F0A94E2F7422B4083EE891B
:10127000FF8940819C010E8C02C0220F331F0A940B
:10128000E2F7422B4083EE89FF8920810F8C02C058
:10129000880F991F0A94E2F7809582238083DF915B
:1012A000CF91FF90EF90DF90CF90BF900895109274
:1012B0004F0310924E0388EE93E0A0E0B0E08093DD
:1012C000500390935103A0935203B09353038AE0C9
:1012D00091E090934D0380934C0382EB93E09093C5
:1012E0005903809358038EE693E090935B038093B9
:1012F0005A0385EC90E090935D0380935C0384EC4B
:1013000090E090935F0380935E0380EC90E0909375
:1013100061038093600381EC90E09093630380937A
:10132000620382EC90E0909365038093640386EC03
:1013300090E0909367038093660384E08093680352
:1013400083E08093690387E080936A0385E080935C
:101350006B0381E080936C030895CF92DF92EF924C
:10136000FF920F931F93CF93DF936C0141155105AB
:10137000F1F08B01EA01E12CF12CD8016D918D0186
:10138000D601ED91FC910190F081E02DC601099507
:10139000E80EF91E2197209781F7C701DF91CF91C1
:1013A0001F910F91FF90EF90DF90CF900895E12C67
:1013B000F12CF3CF8F929F92AF92BF92CF92DF9298
:1013C000EF92FF920F931F93CF93DF93EC016A018B
:1013D00041155105E1F17B0100E010E00E94F905A3
:1013E000688779878A879B8713C00E94F90588845C
:1013F0009984AA84BB84681979098A099B098C801D
:101400009D80AE80BF80681579058A059B0588F4AC
:10141000E881F9810680F781E02DCE01099597FDDD
:10142000E4CFF70181937F010F5F1F4F0C151D055E
:10143000A9F6C801DF91CF911F910F91FF90EF9016
:10144000DF90CF90BF90AF909F908F90089500E075
:1014500010E0EFCFF8940C94AB0AA29FB001B39FB9
:10146000C001A39F700D811D1124911DB29F700DAD
:10147000811D1124911D0895AA1BBB1B51E107C0BA
:10148000AA1FBB1FA617B70710F0A61BB70B881F14
:10149000991F5A95A9F780959095BC01CD010895A3
:1014A00097FB072E16F4009407D077FD09D00E9411
:1014B0003C0A07FC05D03EF4909581959F4F089516
:1014C000709561957F4F0895A1E21A2EAA1BBB1B50
:1014D000FD010DC0AA1FBB1FEE1FFF1FA217B30700
:1014E000E407F50720F0A21BB30BE40BF50B661F16
:1014F000771F881F991F1A9469F7609570958095DA
:1015000090959B01AC01BD01CF010895052E97FB7D
:101510001EF400940E949D0A57FD07D00E94640AA1
:1015200007FC03D04EF40C949D0A509540953095DD
:1015300021953F4F4F4F5F4F08959095809570953F
:1015400061957F4F8F4F9F4F0895EE0FFF1F0590BE
:0A155000F491E02D0994F894FFCF08
:10155A000000F6032000000000001608AD09BC07D1
:06156A00E907CE070B08A3
:00000001FF
