:100000000C9462000C948A000C948A000C948A0070
:100010000C948A000C948A000C948A000C948A0038
:100020000C948A000C948A000C948A000C948A0028
:100030000C948A000C948A000C948A000C948A0018
:100040000C94EC050C948A000C9475080C94AF0881
:100050000C948A000C948A000C948A000C948A00F8
:100060000C948A000C948A00000000070002010032
:100070000003040600000000000000000102040864
:100080001020408001020408102001020408102002
:10009000040404040404040402020202020203032E
:1000A00003030303000000002300260029000000D2
:1000B0000000250028002B0000000000240027007D
:1000C0002A00700911241FBECFEFD8E0DEBFCDBFDC
:1000D00011E0A0E0B1E0E0E3F5E102C005900D928F
:1000E000AA31B107D9F713E0AAE1B1E001C01D922E
:1000F000A631B107E1F710E0C4ECD0E004C02297CC
:10010000FE010E94920AC23CD107C9F70E94E50590
:100110000C94430A0C9400002F923F924F925F92EE
:100120006F927F928F929F92AF92BF92CF92DF9207
:10013000EF92FF920F931F93CF93DF93CDB7DEB76C
:1001400064970FB6F894DEBF0FBECDBF9E878D8734
:100150007C836B835A8349833A8729871416150653
:100160000CF039C3621773070CF035C3CB016EE195
:1001700070E00E945A0A7B011B01E0911A01409134
:100180001B018B819C8168E270E00E945A0A29E27F
:10019000E216F1040CF4B3C06B0139E2E316F1048A
:1001A0001CF018E2E12EF12C222733272C193D09EF
:1001B0003E832D834E2E542E66246394712C20E0B2
:1001C00030E038862F8219014E145F040CF05CC0B9
:1001D00000E010E01C861B86A12CB12C812C912CF8
:1001E00011C02B853C852F5F3F4F3C872B87040D2B
:1001F000151DC6010E94AC063FEF431A530A4E1468
:100200005F0461F0809106010E948407019749F71D
:100210004FEF841A940AA40CB51CEBCFC501B401AE
:100220000E945A0A9B01C8016B857C850E945A0A6C
:100230004B855C8548155905CCF5621773070CF0A2
:1002400053C09A0131952195310930931B012093B8
:100250001A0137FD37C0422FE32F2B853C858216CC
:1002600093060CF53FEF231A330AA981BA812A16A7
:100270003B060CF048C03FEF631A730A442E5E2E13
:100280004E145F040CF4A4CF10921B0110921A01BB
:10029000812C912C1C861B8640E0E0E02B853C8560
:1002A00082169306FCF2212C312CE5CF2617370756
:1002B00064F631952195310930931B0120931A0181
:1002C00037FFC9CF4D815E81249FC001259F900DCE
:1002D000349F900D11240E94AC0610921B011092C5
:1002E0001A0140E0E0E0B9CF2B853C8530931B013B
:1002F00020931A014B85EC85212C312CBCCF0EE1CB
:10030000C02ED12C4ACF7E826D822F8038848B8183
:100310009C8168E270E00E945A0A39E22316310497
:100320000CF44CC23B01610159E2251631041CF06A
:10033000F8E2CF2ED12C22273327261937093C8704
:100340002B87242F3E2F4D805E802C153D050CF011
:1003500058C0E12CF12C00E010E0812C912CA12C54
:10036000B12C10C00F5F1F4FE20EF31EC3012B8B89
:100370003C8B0E94AC062B893C892F5F3F4F2C158C
:100380003D0581F0809106012B8B3C8B0E948407F8
:100390002B893C89019731F74FEFA41AB40A820EDA
:1003A000931EE4CFC401B5010E945A0A9B01C70104
:1003B000B8010E945A0A0A151B050CF078C0621792
:1003C00073070CF0B3C122273327201B310B309366
:1003D0001B0120931A0137FD77C0922F832FA0169F
:1003E000B106E4F429853A85421653060CF07EC026
:1003F0003FEF431A530A292F382F2C153D050CF4D3
:10040000A8CF10921B0110921A0100E010E0A12C5D
:10041000B12C90E080E0A016B10624F349855A85FE
:10042000441655060CF062C0892E982E27E030E065
:100430003A83298330E83F8340E8588A4F86242F47
:10044000422E512C559447944B82E8E2EE2EF12C2B
:100450002E143F040CF471018E149F040CF0B2C1F1
:1004600000E010E01A8A198AC12CD12CA12CB12CE1
:1004700012C049895A894F5F5F4F5A8B498B080DCB
:10048000191DC3010E94AC065FEF851A950A8E14F0
:100490009F0409F41BC1809106010E948407019703
:1004A00041F73FEFA31AB30AC80CD91CEACF2617AD
:1004B00037070CF08CCF31952195310930931B0112
:1004C00020931A0137FF89CF4B855C85249FC0019B
:1004D000259F900D349F900D11240E94AC06109220
:1004E0001B0110921A0190E080E079CF10925C011C
:1004F0004D815E81440D551D5E834D8329853A856E
:10050000241735070CF492C02DE531E038872F838E
:1005100041E050E05C834B833A82298248E0842E9C
:10052000912C50E8452E512C342C252C68E2E62ED7
:10053000F12C49815A814E155F050CF47A014090E7
:100540001A0150901B014E145F040CF0B6C000E07D
:1005500010E0188A1F86C12CD12CA12CB12C11C0FF
:100560002F8538892F5F3F4F388B2F87040D151D3E
:10057000C3010E94AC063FEF431A530A4E145F04B6
:1005800061F0809106010E948407019749F75FEFAF
:10059000A51AB50AC40CD51CEBCFC601B5010E9443
:1005A0005A0A9B01C8016F8578890E945A0A4F85B3
:1005B00058894A155B050CF054C0621773070CF09C
:1005C00074C09A0131952195310930931B01209314
:1005D0001A0137FD53C02F853889A216B3060CF0D7
:1005E00062C0369431E0831A91088114910409F0B5
:1005F0009DCFAF81B8852D92B887AF832D813E8185
:10060000285F3F4F3E832D834B815C814F5F5F4F5F
:100610005C834B838D859E85481759070CF0CBC0B2
:1006200049855A85421753070CF078CF81E090E056
:1006300064960FB6F894DEBF0FBECDBFDF91CF91A9
:100640001F910F91FF90EF90DF90CF90BF90AF90F0
:100650009F908F907F906F905F904F903F902F90E2
:100660000895261737070CF0B0CF31952195310941
:1006700030931B0120931A0137FFADCF4B855C856A
:10068000429FC001439F900D529F900D11240E94E4
:10069000AC0610921B0110921A012F853889A21600
:1006A000B3060CF49ECF23289CCF4F8558895093D6
:1006B0001B0140931A01232894CF10921B01109222
:1006C0001A01188A1F86A12CB12C85CFC601B5014D
:1006D0000E945A0A9B01C80169897A890E945A0AB4
:1006E00049895A894A155B0544F5621773070CF06E
:1006F00058C09A0131952195310930931B012093FF
:100700001A0137FD26C029893A89A216B306ACF52D
:1007100049815A81415051095A834983452BC1F17E
:1007200080901A0190901B012B818ACE10931B019F
:1007300000931A01902F812F71CE26173707ECF600
:1007400031952195310930931B0120931A0137FF10
:10075000DACF4B855C85429FC001439F900D529F2D
:10076000900D11240E94AC0610921B0110921A01E8
:1007700029893A89A216B3065CF23F8134293F8366
:1007800049815A81415051095A834983452B41F689
:100790004F84588857E0450E511C2F8120935C01EF
:1007A000A7CE29893A8930931B0120931A013F81F2
:1007B00034293F83E5CF80E090E03ACFAEE16A2E66
:1007C000712CB1CD10921B0110921A011A8A198A4C
:1007D000A12CB12C98CF8B819C816EE170E00E949E
:1007E0005A0A1B0140911A01E0911B011E821D82D1
:1007F0008ECD2F923F924F925F926F927F928F9207
:100800009F92AF92BF92CF92DF92EF92FF920F939F
:100810001F93CF93DF93CDB7DEB7A3970FB6F894AE
:10082000DEBF0FBECDBF9D8B8C8B7F876E87598BB4
:10083000488B3F8B2E8B198F088FFB8EEA8E813071
:10084000910509F48BC0029709F47DC08C2DBC89F9
:10085000B983EE85EA8328893989307837FF05C066
:10086000215031093F6F2F5F3F4F2B8348895989B2
:10087000421B51099A0157FF02C021503F4F3C8350
:100880005E895D83288D398D307837FF05C0215012
:1008900031093F6F2F5F3F4F2E83A88DB98DA21B6B
:1008A000B1099D01B7FF02C021503F4F3F83BA8D70
:1008B000B8878987EE85FF85AF01F7FD04C1CF01B9
:1008C000475F5F4F9A012730F1E03F0744F4FC0196
:1008D000E45AFE4F6081F901E45AFE4F60830197AC
:1008E000215031098F3F6FEF960769F789E0FE01CC
:1008F0003196ACE5B1E001900D928A95E1F7E09177
:100900006C02F0916D020280F381E02D6CE571E0E4
:100910008CE692E0A3960FB6F894DEBF0FBECDBF73
:10092000DF91CF911F910F91FF90EF90DF90CF90CB
:10093000BF90AF909F908F907F906F905F904F90FF
:100940003F902F900994288D398D4E895F89688951
:1009500079898E859F850E948C0079CFF7FCB1C084
:10096000488959898E899F89489FF001499FF00DD8
:10097000589FF00D112428EE33E0CF01B9010E94F9
:100980005A0A9D8F8C8FCF014C8D5D8D841B950BEA
:10099000B9010E945A0A7F8F6E8F88899989B9019F
:1009A0000E945A0A4C018889998988199909B901C4
:1009B0000E945A0A1B011B8A1A8A8E859F85845AB7
:1009C0009E4F2C016B01EE24D7FCE094FE2C2E8D63
:1009D0003F8D442737FD4095542F28A339A34AA3C0
:1009E0005BA3CA86DB86EC86FD86AE85BF851A16BC
:1009F0001B060CF04BC07CE5E72E71E0F72ED7010B
:100A00007D907D0108E010E0E0E86E2E12141304E2
:100A10007CF55D01CA84DB84EC84FD8412C060E057
:100A2000809108010E943007C4010E94AC06C701F2
:100A3000B6010E9442066694015011090115110584
:100A400001F1862D872159F361E0809108010E9410
:100A50003007EACF60E0809108010E943007C401AE
:100A60000E94AC066694015011090115110551F060
:100A7000862D872179F361E0809108010E9430077B
:100A8000EECF7501E414F50409F0B9CF8C8D9D8D7E
:100A90000E94AC062E8D3F8D1216130634F468A109
:100AA00079A18AA19BA10E9442064A895B894F5F76
:100AB0005F4F5B8B4A8B8A8D9B8D841795070CF05B
:100AC00094CF80E0C4CE475F5F4F10CF2EE040E868
:100AD00055E260E070E08CE692E00E94EA0861E096
:100AE000809108010E94F20660E0809106010C945A
:100AF000F2066F927F928F929F92AF92BF92CF92A7
:100B0000DF92EF92FF920F931F93CF93DF938CE6C8
:100B100092E00E94D507181619060CF047C049E06C
:100B200050E06CE571E08CE692E00E94F309809061
:100B30005C01912CA0905D0180915E01C0915F01EC
:100B4000D0E0DC2FCC27C80FD11D60906001712C44
:100B5000809161010091620110E0102F0027080FC1
:100B6000111DE0906301F12CC0906401D12CB12CD7
:100B7000A5016CE571E08CE692E00E94F309930117
:100B8000AE01B501C4010E94F9038CE692E00E9417
:100B9000D507803491050CF4BACF40E450E06CE105
:100BA00071E08CE692E00E94F309EFCFDF91CF91E4
:100BB0001F910F91FF90EF90DF90CF90BF90AF907B
:100BC0009F908F907F906F9008950E94B7060E942B
:100BD00066050E947905FDCF1F920F920FB60F9206
:100BE00011242F933F938F939F93AF93BF93809143
:100BF000640290916502A0916602B0916702309103
:100C0000630223E0230F2D3768F126E8230F0296B5
:100C1000A11DB11D2093630280936402909365022D
:100C2000A0936602B0936702809168029091690276
:100C3000A0916A02B0916B020196A11DB11D809333
:100C4000680290936902A0936A02B0936B02BF910D
:100C5000AF919F918F913F912F910F900FBE0F9069
:100C60001F9018950196A11DB11DD4CF2FB7F894F0
:100C700060916402709165028091660290916702B2
:100C80002FBF0895CF92DF92EF92FF923FB7F89473
:100C9000C0906802D0906902E0906A02F0906B0206
:100CA00026B5A89B07C02F3F29F04FEFC41AD40ADE
:100CB000E40AF40A3FBFFE2CED2CDC2CCC24C20E3F
:100CC000D11CE11CF11CCC0CDD1CEE1CFF1CCC0C5F
:100CD000DD1CEE1CFF1C9601611571058105910557
:100CE000B1F1FFB7F894C0906802D0906902E0902B
:100CF0006A02F0906B02E6B5A89B07C0EF3F29F0AF
:100D00004FEFC41AD40AE40AF40AFFBFFE2CED2CFC
:100D1000DC2CCC24CE0ED11CE11CF11CCC0CDD1C37
:100D2000EE1CFF1CCC0CDD1CEE1CFF1CA601421BA4
:100D3000530B483E534080F261507109810991097B
:100D400028513C4F611571058105910551F6FF90C1
:100D5000EF90DF90CF9008950197009739F0880FBA
:100D6000991F880F991F02970197F1F708957894BA
:100D700084B5826084BD84B5816084BD85B58260A0
:100D800085BD85B5816085BDEEE6F0E0808181603E
:100D90008083E1E8F0E0108280818260808380813E
:100DA00081608083E0E8F0E0808181608083E1EB16
:100DB000F0E0808184608083E0EBF0E080818160FE
:100DC0008083EAE7F0E080818460808380818260B4
:100DD000808380818160808380818068808310929D
:100DE000C1000895CF93DF9390E0FC01E458FF4FDA
:100DF0002491FC01E057FF4F84918823B9F090E0E3
:100E0000880F991FFC01E854FF4FA591B4918255BA
:100E10009F4FFC01C591D4919FB7662351F062307A
:100E2000A1F0F8948C91822B8C939FBFDF91CF918E
:100E30000895F8948C91209582238C938881822345
:100E400088839FBFDF91CF910895F8948C91322FC2
:100E5000309583238C938881822B88839FBFE6CF34
:100E600090E0FC01E859FF4F2491FC01E458FF4F4A
:100E70003491FC01E057FF4F8491882399F02111B0
:100E800016C0E82FF0E0EE0FFF1FE255FF4FA591CF
:100E9000B4918FB7F8949C91611105C0309593235C
:100EA0009C938FBF0895932B9C938FBFFBCF2330D0
:100EB00029F160F02630E1F02730A1F0243009F765
:100EC000909180009F7D90938000DBCF213031F0A6
:100ED0002230B9F694B59F7D94BDD3CF94B59F775A
:100EE00094BDCFCF9091B0009F7D9093B000C9CFBB
:100EF0009091B0009F779093B000C3CF9091800005
:100F00009F7790938000BDCF90E0FC01E859FF4FA0
:100F10002491FC01E458FF4F3491FC01E057FF4F4E
:100F20008491882391F0211113C0E82FF0E0EE0F97
:100F3000FF1FEC55FF4FA591B4912C91232381E025
:100F400090E009F0089580E0089580E090E0089531
:100F5000233029F160F02630E1F02730A1F0243071
:100F600021F7909180009F7D90938000DECF21300B
:100F700031F02230D1F694B59F7D94BDD6CF94B593
:100F80009F7794BDD2CF9091B0009F7D9093B00099
:100F9000CCCF9091B0009F779093B000C6CF909146
:100FA00080009F7790938000C0CFFC012485358519
:100FB000F901E05CFF4F80819181F901EE5BFF4F09
:100FC00020813181821B930B8F7399270895FC0137
:100FD00084859585FC01E05CFF4F40815181FC01D7
:100FE000EE5BFF4F208131814217530741F00190A2
:100FF000F081E02DE80FF91F808190E008958FEFD8
:101000009FEF0895FC0184859585FC01E05CFF4F0E
:1010100040815181FC01EE5BFF4F208131814217FD
:10102000530779F0A081B181A80FB91F8C9120815D
:1010300031812F5F3F4F2F7333273183208390E01F
:1010400008958FEF9FEF0895FC0181A1882329F077
:10105000A489B5898C9186FFFDCF11A20895CF9305
:10106000DF93DC011E968D919C911F97EC01C05C73
:10107000DF4F488159814F5F5F4F4F735527FC0108
:10108000EE5BFF4F2081318124173507D9F3E881CA
:10109000F981E80FF91F60831E96ED91FC911F976F
:1010A000E05CFF4F518340835696ED91FC9157973A
:1010B000208181E090E05F960C905F9702C0880FDE
:1010C000991F0A94E2F7282B208381E091968C9354
:1010D00091975496ED91FC9155978081806480831F
:1010E00081E090E0DF91CF9108951F920F920FB6AB
:1010F0000F9211242F933F934F938F939F93EF93CE
:10110000FF938091C00082FD27C04091C60080916E
:1011100012039091130301968F7399272091140362
:10112000309115038217930759F0E0911203F09163
:101130001303EE52FD4F40839093130380931203E9
:10114000FF91EF919F918F914F913F912F910F9030
:101150000FBE0F901F9018958091C600F1CF1F927F
:101160000F920FB60F9211242F933F938F939F935B
:10117000EF93FF932091CE023091CF028091D00265
:101180009091D10228173907F9F0E091D002F0913F
:10119000D102E257FD4F20818091D0029091D1027F
:1011A00001968F7399279093D1028093D002209358
:1011B000C600FF91EF919F918F913F912F910F90DA
:1011C0000FBE0F901F9018958091C1008F7D809366
:1011D000C100EFCFBF92CF92DF92EF92FF92CF93F9
:1011E000DF93EC016A017B01B22E411581EE5807B5
:1011F00061057105F9F0EC89FD8981E090E008A0B6
:1012000002C0880F991F0A94E2F7808360E079E0BA
:101210008DE390E0A70196010E946E0A21503109EA
:10122000410951095695479537952795211580E134
:10123000380798F0EC89FD89108260E874E88EE147
:1012400090E0A70196010E946E0A215031094109E0
:1012500051095695479537952795E889F98930833F
:10126000EA89FB892083E88DF98DB082EE89FF89B8
:10127000408181E090E09C010C8C02C0220F331F62
:101280000A94E2F7422B4083EE89FF8940819C015A
:101290000D8C02C0220F331F0A94E2F7422B4083C9
:1012A000EE89FF8940819C010E8C02C0220F331F02
:1012B0000A94E2F7422B4083EE89FF8920810F8C4C
:1012C00002C0880F991F0A94E2F7809582238083D9
:1012D000DF91CF91FF90EF90DF90CF90BF90089576
:1012E00010926F0210926E0288EE93E0A0E0B0E0E0
:1012F0008093700290937102A0937202B093730274
:101300008EE091E090936D0280936C0282ED92E00A
:1013100090937902809378028EE892E090937B021A
:1013200080937A0285EC90E090937D0280937C021A
:1013300084EC90E090937F0280937E0280EC90E0BA
:10134000909381028093800281EC90E090938302DD
:101350008093820282EC90E09093850280938402D5
:1013600086EC90E0909387028093860284E08093DD
:10137000880283E08093890287E080938A0285E077
:1013800080938B0281E080938C020895CF92DF924C
:10139000EF92FF920F931F93CF93DF936C01411550
:1013A0005105F1F08B01EA01E12CF12CD8016D918E
:1013B0008D01D601ED91FC910190F081E02DC601E7
:1013C0000995E80EF91E2197209781F7C701DF9153
:1013D000CF911F910F91FF90EF90DF90CF900895E4
:1013E000E12CF12CF3CF8F929F92AF92BF92CF92CC
:1013F000DF92EF92FF920F931F93CF93DF93EC0155
:101400006A0141155105E1F17B0100E010E00E9405
:101410003606688779878A879B8713C00E943606BD
:1014200088849984AA84BB84681979098A099B09EC
:101430008C809D80AE80BF80681579058A059B05EC
:1014400088F4E881F9810680F781E02DCE010995C5
:1014500097FDE4CFF70181937F010F5F1F4F0C15BC
:101460001D05A9F6C801DF91CF911F910F91FF9043
:10147000EF90DF90CF90BF90AF909F908F900895A6
:1014800000E010E0EFCFF8940C94960AAA1BBB1B67
:1014900051E107C0AA1FBB1FA617B70710F0A61B74
:1014A000B70B881F991F5A95A9F780959095BC0195
:1014B000CD01089597FB072E16F4009407D077FD11
:1014C00009D00E94460A07FC05D03EF4909581950C
:1014D0009F4F0895709561957F4F0895A1E21A2E50
:1014E000AA1BBB1BFD010DC0AA1FBB1FEE1FFF1FC8
:1014F000A217B307E407F50720F0A21BB30BE40B18
:10150000F50B661F771F881F991F1A9469F760955E
:101510007095809590959B01AC01BD01CF01089518
:10152000EE0FFF1F0590F491E02D0994F894FFCF82
:101530000000160320000C000800000000002F0827
:0A154000C609D5070208E7072408D2
:00000001FF
