:100000000C9462000C948A000C948A000C948A0070
:100010000C948A000C948A000C948A000C948A0038
:100020000C948A000C948A000C948A000C948A0028
:100030000C948A000C948A000C948A000C948A0018
:100040000C94D0020C948A000C94C4040C94FE040A
:100050000C948A000C948A000C948A000C948A00F8
:100060000C948A000C948A00000000070002010032
:100070000003040600000000000000000102040864
:100080001020408001020408102001020408102002
:10009000040404040404040402020202020203032E
:1000A00003030303000000002300260029000000D2
:1000B0000000250028002B0000000000240027007D
:1000C0002A00BF0511241FBECFEFD8E0DEBFCDBF91
:1000D00011E0A0E0B1E0E6ECFDE002C005900D9279
:1000E000AA31B107D9F712E0AAE1B1E001C01D922F
:1000F000A33DB107E1F710E0C4ECD0E004C02297C3
:10010000FE010E94DD06C23CD107C9F70E94C90268
:100110000C948E060C9400009B01265E3E4F97FDCA
:1001200010C0AC01460F571F4630514044F4FC014B
:10013000E65EFE4F4081F901E80FF91F4083019709
:10014000EECF08950F931F93CF93DF9300D0CDB7D9
:10015000DEB78B0149835A830E948C004981E42FCA
:100160005A81F52FAAE1B1E0CD018A519140801763
:1001700091071CF481918D93F7CF0F900F90DF9131
:10018000CF911F910F910895CF93DF93EB018823B7
:1001900011F061E001C060E0809108010E94CE038F
:1001A000CE01DF91CF910C942603EF92FF920F9333
:1001B0001F93CF93DF93E82E8B01C8E0D0E080E857
:1001C000F82EB8018F2D8E210E94C400F69421973D
:1001D0002097B9F7DF91CF911F910F91FF90EF908A
:1001E0000895EF92FF920F931F93CF93DF938C01AB
:1001F0007B01CAE1D1E0CE018A519140801791077D
:100200002CF4B70189910E94D500F5CFDF91CF91F1
:100210001F910F91FF90EF900895AF92BF92CF92F0
:10022000DF92EF92FF920F931F93CF93DF939B0187
:1002300077FF02C02F5F3F4F6901D594C7945C01DF
:10024000AA0CBB1C7A01EE0CFF1C00E010E0C0E021
:10025000D0E00A151B0584F0D7FD2196CE019595B7
:100260008795DF91CF911F910F91FF90EF90DF90D5
:10027000CF90BF90AF900895CE15DF056CF78091B9
:1002800006010E940404019719F00F5F1F4F02C07E
:1002900000E010E0C6010E9426032196DACFEF921B
:1002A000FF920F931F93CF93DF937B0197FD0196EE
:1002B0008C0115950795C0E0D0E0809106010E9461
:1002C00004042196892B21F4C8010E942603F5CF4E
:1002D000C8010E942603F701E65EFE4F81E080839D
:1002E000CE0195958795DF91CF911F910F91FF904A
:1002F000EF900895CF92DF92EF92FF920F931F93AA
:10030000CF93DF93EC017B018A010E940D016C0108
:1003100060E070E0C7010E944F018C0D9D1D081721
:10032000190754F0EBE1F1E01192CF018A519140AD
:100330008C179D07CCF303C081E090E002C080E001
:1003400090E0DF91CF911F910F91FF90EF90DF90A0
:10035000CF900895EF92FF920F93CF93DF93EA012E
:10036000F70180836183CA0160E071E00E94A50605
:100370008283AE01481B510957FF02C041505F4FB5
:100380005383C90160E071E00E94A5068483281BA5
:10039000310937FF02C021503F4F35830683DF917B
:1003A000CF910F91FF90EF900895EF92FF920F93EE
:1003B0001F93FC01808190E0DB018D939C938181F0
:1003C00090E0DA018D939C934281838190E0982F95
:1003D0008827840F911DD9018D939C932481858159
:1003E00090E0982F8827820F911DD8018D939C93C0
:1003F000868190E0F701918380831F910F91FF9098
:10040000EF9008956F927F928F929F92AF92BF92DA
:10041000CF92DF92EF92FF920F931F93CF93DF93D0
:10042000CDB7DEB727970FB6F894DEBF0FBECDBFAE
:100430005C016B014A01390181E0A816B10459F051
:1004400092E0A916B10469F4A901B401C6010E94A1
:100450007A018C0106C0BA01C6010E94F10000E0D9
:1004600010E0CE0101967C019301A401B601C50103
:100470000E94AA01A70167E070E0C6010E94A200E5
:10048000E0912902F0912A02A601495F5F4F0280A4
:10049000F381E02D6AE171E089E292E00995279607
:1004A0000FB6F894DEBF0FBECDBFDF91CF911F9185
:1004B0000F91FF90EF90DF90CF90BF90AF909F9003
:1004C0008F907F906F9008952EE040E855E260E0B5
:1004D00070E089E292E00E94390561E080910801B4
:1004E0000E94950360E0809106010C949503EF92C1
:1004F000FF920F931F93CF93DF93CDB7DEB72A9769
:100500000FB6F894DEBF0FBECDBF89E292E00E9425
:100510002D041816190684F547E050E06AE171E0F1
:1005200089E292E00E946B06CE0101967C018E0169
:100530000D5F1F4F9E012B5F3F4FAE01495F5F4F25
:10054000BE01675F7F4F8AE191E00E94D5014F8134
:1005500058856AE171E089E292E00E946B060981A8
:100560001A812B813C814D815E816F8178858985DF
:100570009A850E940202C9CF2A960FB6F894DEBF70
:100580000FBECDBFDF91CF911F910F91FF90EF90E4
:1005900008950E9431030E9464020E947702FDCFF9
:1005A0001F920F920FB60F9211242F933F938F93A8
:1005B0009F93AF93BF938091210290912202A091CB
:1005C0002302B09124023091200223E0230F2D3723
:1005D00020F40196A11DB11D05C026E8230F029647
:1005E000A11DB11D2093200280932102909322022D
:1005F000A0932302B09324028091250290912602B9
:10060000A0912702B09128020196A11DB11D8093EF
:10061000250290932602A0932702B0932802BF914F
:10062000AF919F918F913F912F910F900FBE0F909F
:100630001F9018952FB7F8946091210270912202B3
:1006400080912302909124022FBF08950197009773
:1006500039F0880F991F880F991F02970197F1F7BA
:100660000895789484B5826084BD84B5816084BD2A
:1006700085B5826085BD85B5816085BDEEE6F0E01B
:10068000808181608083E1E8F0E010828081826077
:100690008083808181608083E0E8F0E080818160F8
:1006A0008083E1EBF0E0808184608083E0EBF0E028
:1006B000808181608083EAE7F0E0808184608083CC
:1006C0008081826080838081816080838081806876
:1006D00080831092C1000895833081F028F4813026
:1006E00099F08230A1F008958630A9F08730B9F0F2
:1006F0008430D1F4809180008F7D03C08091800090
:100700008F7780938000089584B58F7702C084B579
:100710008F7D84BD08958091B0008F7703C0809154
:10072000B0008F7D8093B0000895CF93DF9390E069
:10073000FC01E458FF4F2491FC01E057FF4F8491E6
:10074000882349F190E0880F991FFC01E854FF4F7E
:10075000A591B49182559F4FFC01C591D4919FB74B
:10076000611108C0F8948C91209582238C93888124
:1007700082230AC0623051F4F8948C91322F309564
:1007800083238C938881822B888304C0F8948C9176
:10079000822B8C939FBFDF91CF9108950F931F936E
:1007A000CF93DF931F92CDB7DEB7282F30E0F9014A
:1007B000E859FF4F8491F901E458FF4F1491F90172
:1007C000E057FF4F04910023C9F0882321F069838B
:1007D0000E946C036981E02FF0E0EE0FFF1FE255ED
:1007E000FF4FA591B4919FB7F8948C91611103C00C
:1007F0001095812301C0812B8C939FBF0F90DF91B7
:10080000CF911F910F910895CF93DF93282F30E060
:10081000F901E859FF4F8491F901E458FF4FD49151
:10082000F901E057FF4FC491CC2391F081110E9450
:100830006C03EC2FF0E0EE0FFF1FEC55FF4FA5917E
:10084000B4912C912D2381E090E021F480E002C04E
:1008500080E090E0DF91CF910895FC0124853585FB
:10086000F901E05CFF4F80819181F901EE5BFF4F60
:1008700020813181821B930B8F7399270895FC018E
:1008800084859585FC01E05CFF4F40815181FC012E
:10089000EE5BFF4F208131814217530741F00190F9
:1008A000F081E02DE80FF91F808190E008958FEF2F
:1008B0009FEF0895FC0184859585FC01E05CFF4F66
:1008C00040815181FC01EE5BFF4F20813181421755
:1008D000530779F0A081B181A80FB91F8C912081B5
:1008E00031812F5F3F4F2F7333273183208390E077
:1008F00008958FEF9FEF0895FC0181A1882329F0CF
:10090000A489B5898C9186FFFBCF11A20895CF935E
:10091000DF93FC0126853785D901A05CBF4F8D91FF
:100920009C91119701968F739927E901CE5BDF4F58
:100930004881598184179507D9F30D90BC91A02D5A
:10094000A20FB31F6C93A685B785A05CBF4F11960D
:100950009C938E93A689B7892C9181E090E0078CB7
:1009600002C0880F991F0A94E2F7282B2C9381E08C
:1009700081A30488F589E02D80818064808381E0F3
:1009800090E0DF91CF9108951F920F920FB60F92D2
:1009900011242F933F934F938F939F93EF93FF9344
:1009A0008091C00082FD1CC04091C6008091CF02A2
:1009B0009091D00201968F7399272091D1023091A6
:1009C000D2028217930771F0E091CF02F091D0022A
:1009D000E157FD4F40839093D0028093CF0202C035
:1009E0008091C600FF91EF919F918F914F913F9120
:1009F0002F910F900FBE0F901F9018951F920F927E
:100A00000FB60F9211242F933F938F939F93EF93E1
:100A1000FF9320918B0230918C0280918D029091F6
:100A20008E022817390731F48091C1008F7D8093A1
:100A3000C10014C0E0918D02F0918E02E55BFD4F84
:100A4000208180918D0290918E0201968F7399275B
:100A500090938E0280938D022093C600FF91EF91B8
:100A60009F918F913F912F910F900FBE0F901F90EC
:100A70001895BF92CF92DF92EF92FF92CF93DF93C0
:100A8000EC016A017B01B22E411581EE5807610528
:100A90007105F9F0EC89FD8981E090E008A002C0C1
:100AA000880F991F0A94E2F7808360E079E08DE374
:100AB00090E0A70196010E94B90621503109410931
:100AC00051095695479537952795211580E13807A7
:100AD00098F0EC89FD89108260E874E88EE190E07E
:100AE000A70196010E94B906215031094109510917
:100AF0005695479537952795E889F9893083EA898E
:100B0000FB892083E88DF98DB082EE89FF894081D1
:100B100081E090E09C010C8C02C0220F331F0A94EC
:100B2000E2F7422B4083EE89FF8940819C010D8CC6
:100B300002C0220F331F0A94E2F7422B4083EE8952
:100B4000FF8940819C010E8C02C0220F331F0A9442
:100B5000E2F7422B4083EE89FF8920810F8C02C08F
:100B6000880F991F0A94E2F7809582238083DF9192
:100B7000CF91FF90EF90DF90CF90BF9008951092AB
:100B80002C0210922B0288EE93E0A0E0B0E080935C
:100B90002D0290932E02A0932F02B09330028EE08C
:100BA00091E090932A02809329028FE892E090933B
:100BB0003602809335028BE492E090933802809362
:100BC000370285EC90E090933A028093390284ECEE
:100BD00090E090933C0280933B0280EC90E09093F5
:100BE0003E0280933D0281EC90E09093400280931E
:100BF0003F0282EC90E0909342028093410286ECA7
:100C000090E0909344028093430284E080934502F5
:100C100083E08093460287E08093470285E08093DB
:100C2000480281E0809349020895CF92DF92EF92CB
:100C3000FF920F931F93CF93DF936C017A01EB0127
:100C4000E60EF71E00E010E0CE15DF0561F06991B9
:100C5000D601ED91FC910190F081E02DC60109953E
:100C6000080F191FF1CFC801DF91CF911F910F918C
:100C7000FF90EF90DF90CF9008950F931F93CF9345
:100C8000DF93EC010E941A03688779878A879B8724
:100C9000E881F9810680F781E02DCE01099597FF63
:100CA00015C00E941A03088519852A853B85601B9B
:100CB000710B820B930B0C811D812E813F8160177C
:100CC00071078207930720F38FEF9FEFDF91CF919A
:100CD0001F910F910895CF92DF92EF92FF920F93A1
:100CE0001F93CF93DF937C016A01EB0100E010E0DA
:100CF0000C151D0549F0C7010E943D0697FD04C073
:100D000089930F5F1F4FF4CFC801DF91CF911F91DF
:100D10000F91FF90EF90DF90CF900895F8940C948E
:100D2000E106AA1BBB1B51E107C0AA1FBB1FA617E8
:100D3000B70710F0A61BB70B881F991F5A95A9F784
:100D400080959095BC01CD01089597FB072E16F470
:100D5000009407D077FD09D00E94910607FC05D0CA
:100D60003EF4909581959F4F0895709561957F4FC2
:100D70000895A1E21A2EAA1BBB1BFD010DC0AA1FDC
:100D8000BB1FEE1FFF1FA217B307E407F50720F0F4
:100D9000A21BB30BE40BF50B661F771F881F991F6F
:100DA0001A9469F760957095809590959B01AC01B8
:100DB000BD01CF010895EE0FFF1F0590F491E02DC6
:060DC0000994F894FFCF36
:100DC6000000D30220000C00080000000000870489
:0A0DD60015062D045A043F047C04A6
:00000001FF
