:100000000C9462000C948A000C948A000C948A0070
:100010000C948A000C948A000C948A000C948A0038
:100020000C948A000C948A000C948A000C948A0028
:100030000C948A000C948A000C948A000C948A0018
:100040000C947A030C948A000C94B7050C94F10577
:100050000C948A000C948A000C948A000C948A00F8
:100060000C948A000C948A00000000070002010032
:100070000003040600000000000000000102040864
:100080001020408001020408102001020408102002
:10009000040404040404040402020202020203032E
:1000A00003030303000000002300260029000000D2
:1000B0000000250028002B0000000000240027007D
:1000C0002A00B20611241FBECFEFD8E0DEBFCDBF9D
:1000D00011E0A0E0B1E0ECEAFFE002C005900D9273
:1000E000AA31B107D9F712E0AAE1B1E001C01D922F
:1000F000A43DB107E1F710E0C4ECD0E004C02297C2
:10010000FE010E94D007C23CD107C9F70E947303C9
:100110000C9481070C9400009B01265E3E4F97FDD6
:1001200010C0AC01460F571F4730514044F4FC014A
:10013000E65EFE4F4081F901E80FF91F4083019709
:10014000EECF0895CF93DF93EC01E8EEF3E0BF012B
:100150000E9498079C01CE01821B930BBF010E9455
:100160009807EB01C9010E9419041C161D064CF4E6
:10017000BE01882777FD8095982FDF91CF910C9451
:10018000F303DF91CF9108950F931F93CF93DF93E4
:1001900000D0CDB7DEB78B0149835A830E948C0013
:1001A0004981E42F5A81F52FAAE1B1E0CD018A51AE
:1001B0009140801791071CF481918D93F7CF0F9098
:1001C0000F90DF91CF911F910F910895CF93DF93FF
:1001D000EB01882311F061E001C060E0809108012B
:1001E0000E94C104CE01DF91CF910C94A200EF9246
:1001F000FF920F931F93CF93DF93E82E8B01C8E0FC
:10020000D0E080E8F82EB8018F2D8E210E94E60004
:10021000F69421972097B9F7DF91CF911F910F9115
:10022000FF90EF900895EF92FF920F931F93CF935B
:10023000DF938C017B01CAE1D1E0CE018A5191406C
:10024000801791072CF4B70189910E94F700F5CF30
:10025000DF91CF911F910F91FF90EF900895AF9292
:10026000BF92CF92DF92EF92FF920F931F93CF93A3
:10027000DF93CB0177FD01966C01D594C7945A01A9
:10028000AA0CBB1C7901EE0CFF1C00E010E0C0E0E2
:10029000D0E00A151B0584F0D7FD2196CE01959577
:1002A0008795DF91CF911F910F91FF90EF90DF9095
:1002B000CF90BF90AF900895CE15DF056CF7809179
:1002C00006010E94F704019719F00F5F1F4F02C04B
:1002D00000E010E0C6010E94A2002196DACF8F92C2
:1002E0009F92AF92BF92CF92DF92EF92FF920F93C5
:1002F0001F93CF93DF936B0197FD0196EC01D5958A
:10030000C79500E010E0809106010E94F704892B58
:1003100031F4CE010E94A2000F5F1F4FF4CFCE0137
:100320000E94A200B7E0EB2EF12C80E8882E90E826
:10033000992E809106010E94F7045C01CE010E9473
:10034000A200CE010E94A200282D30E0359527950D
:10035000822EAA94AB2809F4922A81E0E81AF108C7
:10036000E114F10431F7F601E65EFE4F9082C80118
:100370000F9695958795DF91CF911F910F91FF90E3
:10038000EF90DF90CF90BF90AF909F908F900895A7
:10039000AF92BF92CF92DF92EF92FF920F931F9393
:1003A000CF93DF937B0197FD01968C0115950795FF
:1003B000C8E0D0E040E8A42EB12C809106010E9454
:1003C000F7046C01C8010E94A200C8010E94A200AB
:1003D000CA94CD2809F4BA28A6942197209769F7E2
:1003E000F701E65EFE4FB08288E090E0DF91CF91AA
:1003F0001F910F91FF90EF90DF90CF90BF90AF9043
:100400000895AF92BF92CF92DF92EF92FF920F9337
:100410001F93CF93DF935C017B0169010E942F0141
:10042000EC0160E070E0C7010E946F01C80FD91FA6
:1004300001E010E0CC16DD0674F0B801C7010E949F
:10044000C801C80FD91F0F5F1F4F0A151B0594F372
:1004500080E090E002C081E090E0DF91CF911F91B9
:100460000F91FF90EF90DF90CF90BF90AF900895E5
:10047000CF92DF92EF920F931F93CF93DF93EA0116
:10048000F60180836183CA0160E071E00E949807F1
:100490008283AE01481B510957FF02C041505F4F94
:1004A00053832483C80160E071E00E94980785832C
:1004B000081B110917FF02C001501F4F1683E78266
:1004C000DF91CF911F910F91EF90DF90CF90089522
:1004D000CF92DF92EF92FF920F931F93FC018081E6
:1004E00090E0DB018D939C93818190E0DA018D9304
:1004F0009C934281838190E0982F8827840F911DDF
:10050000D9018D939C93848190E0D8018D939C9325
:100510002581868190E0982F8827820F911DD70131
:100520008D939C93878190E0F601918380831F9146
:100530000F91FF90EF90DF90CF9008954F925F92D0
:100540006F927F928F929F92AF92BF92CF92DF92E3
:10055000EF92FF920F931F93CF93DF93CDB7DEB748
:1005600028970FB6F894DEBF0FBECDBF4C015B01DC
:100570003A01290181E08816910461F092E0891620
:10058000910471F49801A201B301C5010E94010216
:100590007C0106C0BA01C5010E941301E12CF12CB7
:1005A000CE0101966C019201A301B501C4010E9424
:1005B0003802A60168E070E0C5010E94C400E09125
:1005C0002A02F0912B02A501485F5F4F0280F38160
:1005D000E02D6AE171E08AE292E0099528960FB673
:1005E000F894DEBF0FBECDBFDF91CF911F910F9169
:1005F000FF90EF90DF90CF90BF90AF909F908F9043
:100600007F906F905F904F9008952EE040E855E204
:1006100060E070E08AE292E00E942C0661E0809146
:1006200008010E94880460E0809106010C9488040F
:10063000CF92DF92EF92FF920F931F93CF93DF93AE
:10064000CDB7DEB72C970FB6F894DEBF0FBECDBF87
:100650008AE292E00E94200518161906ACF548E0DF
:1006600050E06AE171E08AE292E00E945E07CE010A
:1006700001966C01CE0103967C018E010B5F1F4F2A
:100680009E01295F3F4FAE01475F5F4FBE01655F2F
:100690007F4F8AE191E00E94680249855A856AE1AC
:1006A00071E08AE292E00E945E07E980FA800B81A5
:1006B0001C812D813E814F81588569857A858B8586
:1006C0009C850E949E02C4CF2C960FB6F894DEBF84
:1006D0000FBECDBFDF91CF911F910F91FF90EF9093
:1006E000DF90CF9008950E9424040E9405030E9489
:1006F0001803FDCF1F920F920FB60F9211242F9364
:100700003F938F939F93AF93BF93809122029091D9
:100710002302A0912402B09125023091210223E00E
:10072000230F2D3720F40196A11DB11D05C026E829
:10073000230F0296A11DB11D209321028093220256
:1007400090932302A0932402B09325028091260265
:1007500090912702A0912802B09129020196A11D33
:10076000B11D8093260290932702A0932802B09394
:100770002902BF91AF919F918F913F912F910F903F
:100780000FBE0F901F9018952FB7F894609122021A
:100790007091230280912402909125022FBF089529
:1007A0003FB7F8948091260290912702A0912802E9
:1007B000B091290226B5A89B05C02F3F19F00196DC
:1007C000A11DB11D3FBF6627782F892F9A2F620F79
:1007D000711D811D911D42E0660F771F881F991FB3
:1007E0004A95D1F70895CF92DF92EF92FF92CF937F
:1007F000DF936B017C010E94D003EB01C114D10493
:10080000E104F10479F00E94D0036C1B7D0B683E7B
:100810007340A0F381E0C81AD108E108F108C8517B
:10082000DC4FECCFDF91CF91FF90EF90DF90CF9036
:1008300008950197009739F0880F991F880F991F25
:1008400002970197F1F70895789484B5826084BD8A
:1008500084B5816084BD85B5826085BD85B58160C4
:1008600085BDEEE6F0E0808181608083E1E8F0E024
:100870001082808182608083808181608083E0E853
:10088000F0E0808181608083E1EBF0E08081846032
:100890008083E0EBF0E0808181608083EAE7F0E034
:1008A0008081846080838081826080838081816098
:1008B00080838081806880831092C1000895833096
:1008C00081F028F4813099F08230A1F008958630CB
:1008D000A9F08730B9F08430D1F4809180008F7D09
:1008E00003C0809180008F7780938000089584B545
:1008F0008F7702C084B58F7D84BD08958091B0004C
:100900008F7703C08091B0008F7D8093B0000895F1
:10091000CF93DF9390E0FC01E458FF4F2491FC015A
:10092000E057FF4F8491882349F190E0880F991F89
:10093000FC01E854FF4FA591B49182559F4FFC01F3
:10094000C591D4919FB7611108C0F8948C912095FE
:1009500082238C93888182230AC0623051F4F894F8
:100960008C91322F309583238C938881822B8883BE
:1009700004C0F8948C91822B8C939FBFDF91CF9110
:1009800008950F931F93CF93DF931F92CDB7DEB7D8
:10099000282F30E0F901E859FF4F8491F901E4581C
:1009A000FF4F1491F901E057FF4F04910023C9F064
:1009B000882321F069830E945F046981E02FF0E0C1
:1009C000EE0FFF1FE255FF4FA591B4919FB7F8942A
:1009D0008C91611103C01095812301C0812B8C93F0
:1009E0009FBF0F90DF91CF911F910F910895CF93EB
:1009F000DF93282F30E0F901E859FF4F8491F90186
:100A0000E458FF4FD491F901E057FF4FC491CC2334
:100A100091F081110E945F04EC2FF0E0EE0FFF1FB8
:100A2000EC55FF4FA591B4912C912D2381E090E0DE
:100A300021F480E002C080E090E0DF91CF91089542
:100A4000FC0124853585F901E05CFF4F80819181AF
:100A5000F901EE5BFF4F20813181821B930B8F7375
:100A600099270895FC0184859585FC01E05CFF4F82
:100A700040815181FC01EE5BFF4F208131814217A3
:100A8000530741F00190F081E02DE80FF91F8081BC
:100A900090E008958FEF9FEF0895FC018485958580
:100AA000FC01E05CFF4F40815181FC01EE5BFF4F98
:100AB000208131814217530779F0A081B181A80FBD
:100AC000B91F8C91208131812F5F3F4F2F733327C6
:100AD0003183208390E008958FEF9FEF0895FC010C
:100AE00081A1882329F0A489B5898C9186FFFBCF49
:100AF00011A20895CF93DF93FC0126853785D90194
:100B0000A05CBF4F8D919C91119701968F7399278F
:100B1000E901CE5BDF4F4881598184179507D9F3EE
:100B20000D90BC91A02DA20FB31F6C93A685B78525
:100B3000A05CBF4F11969C938E93A689B7892C9188
:100B400081E090E0078C02C0880F991F0A94E2F7B9
:100B5000282B2C9381E081A30488F589E02D8081E6
:100B60008064808381E090E0DF91CF9108951F92AF
:100B70000F920FB60F9211242F933F934F938F93A1
:100B80009F93EF93FF938091C00082FD1CC0409122
:100B9000C6008091D0029091D10201968F7399275F
:100BA0002091D2023091D3028217930771F0E09125
:100BB000D002F091D102E057FD4F40839093D102D3
:100BC0008093D00202C08091C600FF91EF919F9167
:100BD0008F914F913F912F910F900FBE0F901F90CB
:100BE00018951F920F920FB60F9211242F933F93D7
:100BF0008F939F93EF93FF9320918C0230918D02FE
:100C000080918E0290918F022817390731F48091DC
:100C1000C1008F7D8093C10014C0E0918E02F091DD
:100C20008F02E45BFD4F208180918E0290918F02B4
:100C300001968F73992790938F0280938E02209351
:100C4000C600FF91EF919F918F913F912F910F904F
:100C50000FBE0F901F901895BF92CF92DF92EF9228
:100C6000FF92CF93DF93EC016A017B01B22E411515
:100C700081EE580761057105F9F0EC89FD8981E085
:100C800090E008A002C0880F991F0A94E2F78083C1
:100C900060E079E08DE390E0A70196010E94AC0747
:100CA00021503109410951095695479537952795A6
:100CB000211580E1380798F0EC89FD89108260E801
:100CC00074E88EE190E0A70196010E94AC072150E4
:100CD0003109410951095695479537952795E88976
:100CE000F9893083EA89FB892083E88DF98DB08208
:100CF000EE89FF89408181E090E09C010C8C02C06C
:100D0000220F331F0A94E2F7422B4083EE89FF89BA
:100D100040819C010D8C02C0220F331F0A94E2F720
:100D2000422B4083EE89FF8940819C010E8C02C0DA
:100D3000220F331F0A94E2F7422B4083EE89FF898A
:100D400020810F8C02C0880F991F0A94E2F78095CA
:100D500082238083DF91CF91FF90EF90DF90CF903F
:100D6000BF90089510922D0210922C0288EE93E00D
:100D7000A0E0B0E080932E0290932F02A093300267
:100D8000B09331028EE091E090932B0280932A027F
:100D900080E992E090933702809336028CE492E0EF
:100DA000909339028093380285EC90E090933B0257
:100DB00080933A0284EC90E090933D0280933C0251
:100DC00080EC90E090933F0280933E0281EC90E0B3
:100DD000909341028093400282EC90E09093430212
:100DE0008093420286EC90E0909345028093440207
:100DF00084E08093460283E08093470287E08093FB
:100E0000480285E08093490281E080934A02089578
:100E1000CF92DF92EF92FF920F931F93CF93DF93C6
:100E20006C017A01EB01E60EF71E00E010E0CE1532
:100E3000DF0561F06991D601ED91FC910190F0819F
:100E4000E02DC6010995080F191FF1CFC801DF91E8
:100E5000CF911F910F91FF90EF90DF90CF90089569
:100E60000F931F93CF93DF93EC010E94C403688715
:100E700079878A879B87E881F9810680F781E02D51
:100E8000CE01099597FF15C00E94C40308851985F6
:100E90002A853B85601B710B820B930B0C811D8196
:100EA0002E813F81601771078207930720F38FEF30
:100EB0009FEFDF91CF911F910F910895CF92DF9215
:100EC000EF92FF920F931F93CF93DF937C016A0100
:100ED000EB0100E010E00C151D0549F0C7010E9470
:100EE000300797FD04C089930F5F1F4FF4CFC801EF
:100EF000DF91CF911F910F91FF90EF90DF90CF90F6
:100F00000895F8940C94D407AA1BBB1B51E107C0A9
:100F1000AA1FBB1FA617B70710F0A61BB70B881F89
:100F2000991F5A95A9F780959095BC01CD01089518
:100F300097FB072E16F4009407D077FD09D00E9486
:100F4000840707FC05D03EF4909581959F4F089546
:100F5000709561957F4F0895A1E21A2EAA1BBB1BC5
:100F6000FD010DC0AA1FBB1FEE1FFF1FA217B30775
:100F7000E407F50720F0A21BB30BE40BF50B661F8B
:100F8000771F881F991F1A9469F76095709580954F
:100F900090959B01AC01BD01CF010895EE0FFF1F9D
:0C0FA0000590F491E02D0994F894FFCF27
:100FAC000000D40220000C000800000000007A05AC
:0A0FBC00080720054D0532056F05FA
:00000001FF
